{
    "contractName": "SafuuX",
    "abi": [
        {
            "inputs": [
                {
                    "internalType": "string",
                    "name": "name_",
                    "type": "string"
                },
                {
                    "internalType": "string",
                    "name": "symbol_",
                    "type": "string"
                },
                {
                    "internalType": "bytes32",
                    "name": "goldListMerkleRoot_",
                    "type": "bytes32"
                },
                {
                    "internalType": "bytes32",
                    "name": "whiteListMerkleRoot_",
                    "type": "bytes32"
                },
                {
                    "internalType": "string",
                    "name": "merkleTreeInputURI_",
                    "type": "string"
                }
            ],
            "stateMutability": "nonpayable",
            "type": "constructor"
        },
        {
            "anonymous": false,
            "inputs": [
                {
                    "indexed": true,
                    "internalType": "address",
                    "name": "account",
                    "type": "address"
                },
                {
                    "indexed": true,
                    "internalType": "address",
                    "name": "operator",
                    "type": "address"
                },
                {
                    "indexed": false,
                    "internalType": "bool",
                    "name": "approved",
                    "type": "bool"
                }
            ],
            "name": "ApprovalForAll",
            "type": "event"
        },
        {
            "anonymous": false,
            "inputs": [
                {
                    "indexed": true,
                    "internalType": "address",
                    "name": "previousOwner",
                    "type": "address"
                },
                {
                    "indexed": true,
                    "internalType": "address",
                    "name": "newOwner",
                    "type": "address"
                }
            ],
            "name": "OwnershipTransferred",
            "type": "event"
        },
        {
            "anonymous": false,
            "inputs": [
                {
                    "indexed": true,
                    "internalType": "address",
                    "name": "operator",
                    "type": "address"
                },
                {
                    "indexed": true,
                    "internalType": "address",
                    "name": "from",
                    "type": "address"
                },
                {
                    "indexed": true,
                    "internalType": "address",
                    "name": "to",
                    "type": "address"
                },
                {
                    "indexed": false,
                    "internalType": "uint256[]",
                    "name": "ids",
                    "type": "uint256[]"
                },
                {
                    "indexed": false,
                    "internalType": "uint256[]",
                    "name": "values",
                    "type": "uint256[]"
                }
            ],
            "name": "TransferBatch",
            "type": "event"
        },
        {
            "anonymous": false,
            "inputs": [
                {
                    "indexed": true,
                    "internalType": "address",
                    "name": "operator",
                    "type": "address"
                },
                {
                    "indexed": true,
                    "internalType": "address",
                    "name": "from",
                    "type": "address"
                },
                {
                    "indexed": true,
                    "internalType": "address",
                    "name": "to",
                    "type": "address"
                },
                {
                    "indexed": false,
                    "internalType": "uint256",
                    "name": "id",
                    "type": "uint256"
                },
                {
                    "indexed": false,
                    "internalType": "uint256",
                    "name": "value",
                    "type": "uint256"
                }
            ],
            "name": "TransferSingle",
            "type": "event"
        },
        {
            "anonymous": false,
            "inputs": [
                {
                    "indexed": false,
                    "internalType": "string",
                    "name": "value",
                    "type": "string"
                },
                {
                    "indexed": true,
                    "internalType": "uint256",
                    "name": "id",
                    "type": "uint256"
                }
            ],
            "name": "URI",
            "type": "event"
        },
        {
            "inputs": [],
            "name": "FULL_NODE_COST",
            "outputs": [
                {
                    "internalType": "uint256",
                    "name": "",
                    "type": "uint256"
                }
            ],
            "stateMutability": "view",
            "type": "function"
        },
        {
            "inputs": [],
            "name": "FULL_NODE_CURRENT_SUPPLY",
            "outputs": [
                {
                    "internalType": "uint256",
                    "name": "",
                    "type": "uint256"
                }
            ],
            "stateMutability": "view",
            "type": "function"
        },
        {
            "inputs": [],
            "name": "FULL_NODE_LIMIT",
            "outputs": [
                {
                    "internalType": "uint256",
                    "name": "",
                    "type": "uint256"
                }
            ],
            "stateMutability": "view",
            "type": "function"
        },
        {
            "inputs": [],
            "name": "LITE_NODE_COST",
            "outputs": [
                {
                    "internalType": "uint256",
                    "name": "",
                    "type": "uint256"
                }
            ],
            "stateMutability": "view",
            "type": "function"
        },
        {
            "inputs": [],
            "name": "LITE_NODE_CURRENT_SUPPLY",
            "outputs": [
                {
                    "internalType": "uint256",
                    "name": "",
                    "type": "uint256"
                }
            ],
            "stateMutability": "view",
            "type": "function"
        },
        {
            "inputs": [],
            "name": "LITE_NODE_LIMIT",
            "outputs": [
                {
                    "internalType": "uint256",
                    "name": "",
                    "type": "uint256"
                }
            ],
            "stateMutability": "view",
            "type": "function"
        },
        {
            "inputs": [],
            "name": "MAX_GOLDLIST_LIMIT",
            "outputs": [
                {
                    "internalType": "uint256",
                    "name": "",
                    "type": "uint256"
                }
            ],
            "stateMutability": "view",
            "type": "function"
        },
        {
            "inputs": [],
            "name": "_goldListMerkleRoot",
            "outputs": [
                {
                    "internalType": "bytes32",
                    "name": "",
                    "type": "bytes32"
                }
            ],
            "stateMutability": "view",
            "type": "function"
        },
        {
            "inputs": [],
            "name": "_isGoldListSaleActive",
            "outputs": [
                {
                    "internalType": "bool",
                    "name": "",
                    "type": "bool"
                }
            ],
            "stateMutability": "view",
            "type": "function"
        },
        {
            "inputs": [],
            "name": "_isWhiteListSaleActive",
            "outputs": [
                {
                    "internalType": "bool",
                    "name": "",
                    "type": "bool"
                }
            ],
            "stateMutability": "view",
            "type": "function"
        },
        {
            "inputs": [],
            "name": "_merkleTreeInputURI",
            "outputs": [
                {
                    "internalType": "string",
                    "name": "",
                    "type": "string"
                }
            ],
            "stateMutability": "view",
            "type": "function"
        },
        {
            "inputs": [],
            "name": "_name",
            "outputs": [
                {
                    "internalType": "string",
                    "name": "",
                    "type": "string"
                }
            ],
            "stateMutability": "view",
            "type": "function"
        },
        {
            "inputs": [],
            "name": "_symbol",
            "outputs": [
                {
                    "internalType": "string",
                    "name": "",
                    "type": "string"
                }
            ],
            "stateMutability": "view",
            "type": "function"
        },
        {
            "inputs": [],
            "name": "_whiteListMerkleRoot",
            "outputs": [
                {
                    "internalType": "bytes32",
                    "name": "",
                    "type": "bytes32"
                }
            ],
            "stateMutability": "view",
            "type": "function"
        },
        {
            "inputs": [
                {
                    "internalType": "address",
                    "name": "account",
                    "type": "address"
                },
                {
                    "internalType": "uint256",
                    "name": "id",
                    "type": "uint256"
                }
            ],
            "name": "balanceOf",
            "outputs": [
                {
                    "internalType": "uint256",
                    "name": "",
                    "type": "uint256"
                }
            ],
            "stateMutability": "view",
            "type": "function"
        },
        {
            "inputs": [
                {
                    "internalType": "address[]",
                    "name": "accounts",
                    "type": "address[]"
                },
                {
                    "internalType": "uint256[]",
                    "name": "ids",
                    "type": "uint256[]"
                }
            ],
            "name": "balanceOfBatch",
            "outputs": [
                {
                    "internalType": "uint256[]",
                    "name": "",
                    "type": "uint256[]"
                }
            ],
            "stateMutability": "view",
            "type": "function"
        },
        {
            "inputs": [
                {
                    "internalType": "uint256",
                    "name": "_id",
                    "type": "uint256"
                },
                {
                    "internalType": "uint256",
                    "name": "_amount",
                    "type": "uint256"
                }
            ],
            "name": "burn",
            "outputs": [],
            "stateMutability": "nonpayable",
            "type": "function"
        },
        {
            "inputs": [
                {
                    "internalType": "uint256[]",
                    "name": "_ids",
                    "type": "uint256[]"
                },
                {
                    "internalType": "uint256[]",
                    "name": "_amounts",
                    "type": "uint256[]"
                }
            ],
            "name": "burnBatch",
            "outputs": [],
            "stateMutability": "nonpayable",
            "type": "function"
        },
        {
            "inputs": [
                {
                    "internalType": "address",
                    "name": "_from",
                    "type": "address"
                },
                {
                    "internalType": "uint256[]",
                    "name": "_burnIds",
                    "type": "uint256[]"
                },
                {
                    "internalType": "uint256[]",
                    "name": "_burnAmounts",
                    "type": "uint256[]"
                },
                {
                    "internalType": "uint256[]",
                    "name": "_mintIds",
                    "type": "uint256[]"
                },
                {
                    "internalType": "uint256[]",
                    "name": "_mintAmounts",
                    "type": "uint256[]"
                }
            ],
            "name": "burnForMint",
            "outputs": [],
            "stateMutability": "nonpayable",
            "type": "function"
        },
        {
            "inputs": [
                {
                    "internalType": "address",
                    "name": "walletAddress",
                    "type": "address"
                },
                {
                    "internalType": "bytes32[]",
                    "name": "merkleProof",
                    "type": "bytes32[]"
                }
            ],
            "name": "checkGoldListEligibility",
            "outputs": [
                {
                    "internalType": "bool",
                    "name": "",
                    "type": "bool"
                }
            ],
            "stateMutability": "view",
            "type": "function"
        },
        {
            "inputs": [
                {
                    "internalType": "address",
                    "name": "walletAddress",
                    "type": "address"
                },
                {
                    "internalType": "bytes32[]",
                    "name": "merkleProof",
                    "type": "bytes32[]"
                }
            ],
            "name": "checkWhiteListEligibility",
            "outputs": [
                {
                    "internalType": "bool",
                    "name": "",
                    "type": "bool"
                }
            ],
            "stateMutability": "view",
            "type": "function"
        },
        {
            "inputs": [
                {
                    "internalType": "address",
                    "name": "",
                    "type": "address"
                }
            ],
            "name": "fullNodeClaimed",
            "outputs": [
                {
                    "internalType": "bool",
                    "name": "",
                    "type": "bool"
                }
            ],
            "stateMutability": "view",
            "type": "function"
        },
        {
            "inputs": [],
            "name": "getMerkleTreeInputURI",
            "outputs": [
                {
                    "internalType": "string",
                    "name": "",
                    "type": "string"
                }
            ],
            "stateMutability": "view",
            "type": "function"
        },
        {
            "inputs": [
                {
                    "internalType": "address",
                    "name": "account",
                    "type": "address"
                },
                {
                    "internalType": "address",
                    "name": "operator",
                    "type": "address"
                }
            ],
            "name": "isApprovedForAll",
            "outputs": [
                {
                    "internalType": "bool",
                    "name": "",
                    "type": "bool"
                }
            ],
            "stateMutability": "view",
            "type": "function"
        },
        {
            "inputs": [
                {
                    "internalType": "address",
                    "name": "",
                    "type": "address"
                }
            ],
            "name": "liteNodeClaimed",
            "outputs": [
                {
                    "internalType": "bool",
                    "name": "",
                    "type": "bool"
                }
            ],
            "stateMutability": "view",
            "type": "function"
        },
        {
            "inputs": [
                {
                    "internalType": "bytes32[]",
                    "name": "merkleProof",
                    "type": "bytes32[]"
                }
            ],
            "name": "mintFullNode",
            "outputs": [],
            "stateMutability": "nonpayable",
            "type": "function"
        },
        {
            "inputs": [
                {
                    "internalType": "uint256",
                    "name": "_amount",
                    "type": "uint256"
                },
                {
                    "internalType": "bytes32[]",
                    "name": "merkleProof",
                    "type": "bytes32[]"
                }
            ],
            "name": "mintLiteNode",
            "outputs": [],
            "stateMutability": "nonpayable",
            "type": "function"
        },
        {
            "inputs": [],
            "name": "name",
            "outputs": [
                {
                    "internalType": "string",
                    "name": "",
                    "type": "string"
                }
            ],
            "stateMutability": "view",
            "type": "function"
        },
        {
            "inputs": [],
            "name": "owner",
            "outputs": [
                {
                    "internalType": "address",
                    "name": "",
                    "type": "address"
                }
            ],
            "stateMutability": "view",
            "type": "function"
        },
        {
            "inputs": [],
            "name": "renounceOwnership",
            "outputs": [],
            "stateMutability": "nonpayable",
            "type": "function"
        },
        {
            "inputs": [
                {
                    "internalType": "address",
                    "name": "from",
                    "type": "address"
                },
                {
                    "internalType": "address",
                    "name": "to",
                    "type": "address"
                },
                {
                    "internalType": "uint256[]",
                    "name": "ids",
                    "type": "uint256[]"
                },
                {
                    "internalType": "uint256[]",
                    "name": "amounts",
                    "type": "uint256[]"
                },
                {
                    "internalType": "bytes",
                    "name": "data",
                    "type": "bytes"
                }
            ],
            "name": "safeBatchTransferFrom",
            "outputs": [],
            "stateMutability": "nonpayable",
            "type": "function"
        },
        {
            "inputs": [],
            "name": "safeMint",
            "outputs": [],
            "stateMutability": "payable",
            "type": "function"
        },
        {
            "inputs": [
                {
                    "internalType": "address",
                    "name": "from",
                    "type": "address"
                },
                {
                    "internalType": "address",
                    "name": "to",
                    "type": "address"
                },
                {
                    "internalType": "uint256",
                    "name": "id",
                    "type": "uint256"
                },
                {
                    "internalType": "uint256",
                    "name": "amount",
                    "type": "uint256"
                },
                {
                    "internalType": "bytes",
                    "name": "data",
                    "type": "bytes"
                }
            ],
            "name": "safeTransferFrom",
            "outputs": [],
            "stateMutability": "nonpayable",
            "type": "function"
        },
        {
            "inputs": [],
            "name": "safuuTokenAddress",
            "outputs": [
                {
                    "internalType": "address",
                    "name": "",
                    "type": "address"
                }
            ],
            "stateMutability": "view",
            "type": "function"
        },
        {
            "inputs": [
                {
                    "internalType": "address",
                    "name": "operator",
                    "type": "address"
                },
                {
                    "internalType": "bool",
                    "name": "approved",
                    "type": "bool"
                }
            ],
            "name": "setApprovalForAll",
            "outputs": [],
            "stateMutability": "nonpayable",
            "type": "function"
        },
        {
            "inputs": [
                {
                    "internalType": "bool",
                    "name": "_isActive",
                    "type": "bool"
                }
            ],
            "name": "setGoldListSaleStatus",
            "outputs": [],
            "stateMutability": "nonpayable",
            "type": "function"
        },
        {
            "inputs": [
                {
                    "internalType": "uint256",
                    "name": "_id",
                    "type": "uint256"
                },
                {
                    "internalType": "string",
                    "name": "_uri",
                    "type": "string"
                }
            ],
            "name": "setURI",
            "outputs": [],
            "stateMutability": "nonpayable",
            "type": "function"
        },
        {
            "inputs": [
                {
                    "internalType": "bool",
                    "name": "_isActive",
                    "type": "bool"
                }
            ],
            "name": "setWhiteListSaleStatus",
            "outputs": [],
            "stateMutability": "nonpayable",
            "type": "function"
        },
        {
            "inputs": [
                {
                    "internalType": "bytes4",
                    "name": "interfaceId",
                    "type": "bytes4"
                }
            ],
            "name": "supportsInterface",
            "outputs": [
                {
                    "internalType": "bool",
                    "name": "",
                    "type": "bool"
                }
            ],
            "stateMutability": "view",
            "type": "function"
        },
        {
            "inputs": [],
            "name": "symbol",
            "outputs": [
                {
                    "internalType": "string",
                    "name": "",
                    "type": "string"
                }
            ],
            "stateMutability": "view",
            "type": "function"
        },
        {
            "inputs": [
                {
                    "internalType": "uint256",
                    "name": "",
                    "type": "uint256"
                }
            ],
            "name": "tokenURI",
            "outputs": [
                {
                    "internalType": "string",
                    "name": "",
                    "type": "string"
                }
            ],
            "stateMutability": "view",
            "type": "function"
        },
        {
            "inputs": [
                {
                    "internalType": "address",
                    "name": "newOwner",
                    "type": "address"
                }
            ],
            "name": "transferOwnership",
            "outputs": [],
            "stateMutability": "nonpayable",
            "type": "function"
        },
        {
            "inputs": [
                {
                    "internalType": "uint256",
                    "name": "_id",
                    "type": "uint256"
                }
            ],
            "name": "uri",
            "outputs": [
                {
                    "internalType": "string",
                    "name": "",
                    "type": "string"
                }
            ],
            "stateMutability": "view",
            "type": "function"
        },
        {
            "inputs": [],
            "name": "withdrawFunds",
            "outputs": [],
            "stateMutability": "nonpayable",
            "type": "function"
        },
        {
            "inputs": [
                {
                    "internalType": "contract IERC20",
                    "name": "tokenContract",
                    "type": "address"
                },
                {
                    "internalType": "address",
                    "name": "to",
                    "type": "address"
                },
                {
                    "internalType": "uint256",
                    "name": "amount",
                    "type": "uint256"
                }
            ],
            "name": "withdrawTokens",
            "outputs": [],
            "stateMutability": "nonpayable",
            "type": "function"
        }
    ],
    "bytecode": "60c06040526007805462010000600160b01b031916758b801270f3e02ea2aaccf134333d5e5a019eff42000017905561138860088190556009556101f4600a556105dc600b556014600c553480156200005757600080fd5b5060405162003aad38038062003aad8339810160408190526200007a91620005b0565b604080516020810190915260008152620000948162000109565b50620000a0336200011b565b6004620000ae8682620006e0565b506005620000bd8582620006e0565b506006620000cc8282620006e0565b50608083905260a08290526005600d819055604080516020810190915260008152620000fe913391600191906200016d565b505050505062000952565b6002620001178282620006e0565b5050565b600380546001600160a01b038381166001600160a01b0319831681179093556040519116919082907f8be0079c531659141344cd1fd0a4f28419497f9722a3daafe3b4186f6b6457e090600090a35050565b6001600160a01b038416620001d35760405162461bcd60e51b815260206004820152602160248201527f455243313135353a206d696e7420746f20746865207a65726f206164647265736044820152607360f81b60648201526084015b60405180910390fd5b336000620001e1856200028f565b90506000620001f0856200028f565b90506000868152602081815260408083206001600160a01b038b1684529091528120805487929062000224908490620007ac565b909155505060408051878152602081018790526001600160a01b03808a1692600092918716917fc3d58168c5ae7397731d063d5bbf3d657854427343f4c083240f7aacaa2d0f62910160405180910390a46200028683600089898989620002e5565b50505050505050565b60408051600180825281830190925260609160009190602080830190803683370190505090508281600081518110620002cc57620002cc620007d3565b602090810291909101015292915050565b505050505050565b62000304846001600160a01b0316620004b160201b620016571760201c565b15620002dd5760405163f23a6e6160e01b81526001600160a01b0385169063f23a6e619062000340908990899088908890889060040162000817565b6020604051808303816000875af19250505080156200037e575060408051601f3d908101601f191682019092526200037b918101906200085e565b60015b6200043e576200038d62000891565b806308c379a003620003cd5750620003a4620008ae565b80620003b15750620003cf565b8060405162461bcd60e51b8152600401620001ca91906200093d565b505b60405162461bcd60e51b815260206004820152603460248201527f455243313135353a207472616e7366657220746f206e6f6e204552433131353560448201527f526563656976657220696d706c656d656e7465720000000000000000000000006064820152608401620001ca565b6001600160e01b0319811663f23a6e6160e01b14620002865760405162461bcd60e51b815260206004820152602860248201527f455243313135353a204552433131353552656365697665722072656a656374656044820152676420746f6b656e7360c01b6064820152608401620001ca565b6001600160a01b03163b151590565b634e487b7160e01b600052604160045260246000fd5b601f8201601f191681016001600160401b0381118282101715620004fe57620004fe620004c0565b6040525050565b60005b838110156200052257818101518382015260200162000508565b8381111562000532576000848401525b50505050565b600082601f8301126200054a57600080fd5b81516001600160401b03811115620005665762000566620004c0565b6040516200057f601f8301601f191660200182620004d6565b8181528460208386010111156200059557600080fd5b620005a882602083016020870162000505565b949350505050565b600080600080600060a08688031215620005c957600080fd5b85516001600160401b0380821115620005e157600080fd5b620005ef89838a0162000538565b965060208801519150808211156200060657600080fd5b6200061489838a0162000538565b9550604088015194506060880151935060808801519150808211156200063957600080fd5b50620006488882890162000538565b9150509295509295909350565b600181811c908216806200066a57607f821691505b6020821081036200068b57634e487b7160e01b600052602260045260246000fd5b50919050565b601f821115620006db57600081815260208120601f850160051c81016020861015620006ba5750805b601f850160051c820191505b81811015620002dd57828155600101620006c6565b505050565b81516001600160401b03811115620006fc57620006fc620004c0565b62000714816200070d845462000655565b8462000691565b602080601f8311600181146200074c5760008415620007335750858301515b600019600386901b1c1916600185901b178555620002dd565b600085815260208120601f198616915b828110156200077d578886015182559484019460019091019084016200075c565b50858210156200079c5787850151600019600388901b60f8161c191681555b5050505050600190811b01905550565b60008219821115620007ce57634e487b7160e01b600052601160045260246000fd5b500190565b634e487b7160e01b600052603260045260246000fd5b600081518084526200080381602086016020860162000505565b601f01601f19169290920160200192915050565b6001600160a01b03868116825285166020820152604081018490526060810183905260a0608082018190526000906200085390830184620007e9565b979650505050505050565b6000602082840312156200087157600080fd5b81516001600160e01b0319811681146200088a57600080fd5b9392505050565b600060033d1115620008ab5760046000803e5060005160e01c5b90565b600060443d1015620008bd5790565b6040516003193d81016004833e81513d6001600160401b038083116024840183101715620008ed57505050505090565b8285019150815181811115620009065750505050505090565b843d8701016020828501011115620009215750505050505090565b6200093260208286010187620004d6565b509095945050505050565b6020815260006200088a6020830184620007e9565b60805160a05161311962000994600039600081816102eb01528181610aca01528181610c19015261108d015260008181610652015261156601526131196000f3fe6080604052600436106102715760003560e01c8063862440e21161014f578063c3c1e8ff116100c1578063ec75c2ec1161007a578063ec75c2ec1461078c578063f11207d8146107ba578063f242432a146107d9578063f2fde38b146107f9578063f48ef7b314610819578063ff9204fc1461082f57600080fd5b8063c3c1e8ff146106a4578063c87b56dd146106b9578063d28d8852146106d9578063d55690cc146106ee578063df714a2314610723578063e985e9c51461074357600080fd5b8063aacffcd111610113578063aacffcd1146105df578063b09f1266146105f5578063b3579f1b1461060a578063b390c0ab14610620578063b39d80cb14610640578063c09150091461067457600080fd5b8063862440e2146105325780638da5cb5b146105525780639183614e1461058457806395d89b41146105aa578063a22cb465146105bf57600080fd5b806330b9ff72116101e857806359c37021116101ac57806359c370211461049f5780635ce92989146104bf5780635e35359e146104d55780636871ee40146104f5578063715018a6146104fd57806383ca4b6f1461051257600080fd5b806330b9ff72146104065780633b822fc01461041c5780633ea514911461043c5780634e1273f414610452578063510f41041461047f57600080fd5b8063122ef00b1161023a578063122ef00b1461034f578063168951901461037f57806324600fc3146103995780632482751c146103b05780632eb2c2d6146103d05780632fa5b0cb146103f057600080fd5b8062fdd58e1461027657806301ffc9a7146102a9578063041fa44e146102d957806306fdde031461030d5780630e89341c1461032f575b600080fd5b34801561028257600080fd5b506102966102913660046122b9565b610844565b6040519081526020015b60405180910390f35b3480156102b557600080fd5b506102c96102c43660046122fb565b6108da565b60405190151581526020016102a0565b3480156102e557600080fd5b506102967f000000000000000000000000000000000000000000000000000000000000000081565b34801561031957600080fd5b5061032261092c565b6040516102a09190612365565b34801561033b57600080fd5b5061032261034a366004612378565b6109be565b34801561035b57600080fd5b506102c961036a366004612391565b60106020526000908152604090205460ff1681565b34801561038b57600080fd5b506007546102c99060ff1681565b3480156103a557600080fd5b506103ae610a60565b005b3480156103bc57600080fd5b506102c96103cb3660046123f9565b610a97565b3480156103dc57600080fd5b506103ae6103eb3660046125a0565b610afb565b3480156103fc57600080fd5b50610296600b5481565b34801561041257600080fd5b50610296600a5481565b34801561042857600080fd5b506103ae61043736600461264d565b610b47565b34801561044857600080fd5b5061029660095481565b34801561045e57600080fd5b5061047261046d36600461268e565b610ded565b6040516102a09190612795565b34801561048b57600080fd5b506103ae61049a3660046127a8565b610f16565b3480156104ab57600080fd5b506103ae6104ba36600461285a565b610f44565b3480156104cb57600080fd5b50610296600e5481565b3480156104e157600080fd5b506103ae6104f036600461288c565b6112b1565b6103ae61132c565b34801561050957600080fd5b506103ae6113cf565b34801561051e57600080fd5b506103ae61052d3660046128cd565b6113e1565b34801561053e57600080fd5b506103ae61054d366004612919565b6113f0565b34801561055e57600080fd5b506003546001600160a01b03165b6040516001600160a01b0390911681526020016102a0565b34801561059057600080fd5b5060075461056c906201000090046001600160a01b031681565b3480156105b657600080fd5b5061032261144d565b3480156105cb57600080fd5b506103ae6105da366004612977565b61145c565b3480156105eb57600080fd5b5061029660085481565b34801561060157600080fd5b50610322611467565b34801561061657600080fd5b50610296600c5481565b34801561062c57600080fd5b506103ae61063b3660046129b0565b6114f5565b34801561064c57600080fd5b506102967f000000000000000000000000000000000000000000000000000000000000000081565b34801561068057600080fd5b506102c961068f366004612391565b60116020526000908152604090205460ff1681565b3480156106b057600080fd5b50610322611500565b3480156106c557600080fd5b506103226106d4366004612378565b61150d565b3480156106e557600080fd5b50610322611526565b3480156106fa57600080fd5b506103ae6107093660046129d2565b600780549115156101000261ff0019909216919091179055565b34801561072f57600080fd5b506102c961073e3660046123f9565b611533565b34801561074f57600080fd5b506102c961075e3660046129ef565b6001600160a01b03918216600090815260016020908152604080832093909416825291909152205460ff1690565b34801561079857600080fd5b506103ae6107a73660046129d2565b6007805460ff1916911515919091179055565b3480156107c657600080fd5b506007546102c990610100900460ff1681565b3480156107e557600080fd5b506103ae6107f4366004612a1d565b61158d565b34801561080557600080fd5b506103ae610814366004612391565b6115d2565b34801561082557600080fd5b50610296600d5481565b34801561083b57600080fd5b50610322611648565b60006001600160a01b0383166108b45760405162461bcd60e51b815260206004820152602a60248201527f455243313135353a2061646472657373207a65726f206973206e6f742061207660448201526930b634b21037bbb732b960b11b60648201526084015b60405180910390fd5b506000908152602081815260408083206001600160a01b03949094168352929052205490565b60006001600160e01b03198216636cdb3d1360e11b148061090b57506001600160e01b031982166303a24d0760e21b145b8061092657506301ffc9a760e01b6001600160e01b03198316145b92915050565b60606004805461093b90612a85565b80601f016020809104026020016040519081016040528092919081815260200182805461096790612a85565b80156109b45780601f10610989576101008083540402835291602001916109b4565b820191906000526020600020905b81548152906001019060200180831161099757829003601f168201915b5050505050905090565b6000818152600f602052604090208054606091906109db90612a85565b80601f0160208091040260200160405190810160405280929190818152602001828054610a0790612a85565b8015610a545780601f10610a2957610100808354040283529160200191610a54565b820191906000526020600020905b815481529060010190602001808311610a3757829003601f168201915b50505050509050919050565b610a68611666565b60405133904780156108fc02916000818181858888f19350505050158015610a94573d6000803e3d6000fd5b50565b60008084604051602001610aab9190612abf565b6040516020818303038152906040528051906020012090506000610af17f00000000000000000000000000000000000000000000000000000000000000008686856116c0565b9695505050505050565b6001600160a01b038516331480610b175750610b17853361075e565b610b335760405162461bcd60e51b81526004016108ab90612adc565b610b40858585858561170b565b5050505050565b600a54600d54610b58906001612b41565b1115610bb95760405162461bcd60e51b815260206004820152602a60248201527f507572636861736520776f756c6420657863656564206d61782046756c6c204e6044820152696f646520737570706c7960b01b60648201526084016108ab565b3360009081526010602052604090205460ff1615610be95760405162461bcd60e51b81526004016108ab90612b59565b600033604051602001610bfc9190612abf565b604051602081830303815290604052805190602001209050610c407f00000000000000000000000000000000000000000000000000000000000000008484846116c0565b1515600114610c615760405162461bcd60e51b81526004016108ab90612b9e565b6008546007546040516370a0823160e01b8152336004820152620100009091046001600160a01b0316906370a0823190602401602060405180830381865afa158015610cb1573d6000803e3d6000fd5b505050506040513d601f19601f82011682018060405250810190610cd59190612be9565b1015610d1a5760405162461bcd60e51b8152602060048201526014602482015273496e73756666696369656e742062616c616e636560601b60448201526064016108ab565b600d54610d28906001612b41565b600d553360008181526010602052604090819020805460ff1916600117905560075460085491516323b872dd60e01b8152600481019390935230602484015260448301919091526201000090046001600160a01b0316906323b872dd906064016020604051808303816000875af1158015610da7573d6000803e3d6000fd5b505050506040513d601f19601f82011682018060405250810190610dcb9190612c02565b50610de833600180604051806020016040528060008152506118a7565b505050565b60608151835114610e525760405162461bcd60e51b815260206004820152602960248201527f455243313135353a206163636f756e747320616e6420696473206c656e677468604482015268040dad2e6dac2e8c6d60bb1b60648201526084016108ab565b600083516001600160401b03811115610e6d57610e6d61244d565b604051908082528060200260200182016040528015610e96578160200160208202803683370190505b50905060005b8451811015610f0e57610ee1858281518110610eba57610eba612c1f565b6020026020010151858381518110610ed457610ed4612c1f565b6020026020010151610844565b828281518110610ef357610ef3612c1f565b6020908102919091010152610f0781612c35565b9050610e9c565b509392505050565b610f1e611666565b610f29858585611981565b610b4085838360405180602001604052806000815250611b0b565b600683610f52336002610844565b610f5c9190612b41565b10610fbb5760405162461bcd60e51b815260206004820152602960248201527f45786365656473206d61782035204c697465204e6f6465206c696d697420706560448201526872206164647265737360b81b60648201526084016108ab565b600b5483600e54610fcc9190612b41565b111561102d5760405162461bcd60e51b815260206004820152602a60248201527f507572636861736520776f756c6420657863656564206d6178204c697465204e6044820152696f646520737570706c7960b01b60648201526084016108ab565b3360009081526011602052604090205460ff161561105d5760405162461bcd60e51b81526004016108ab90612b59565b6000336040516020016110709190612abf565b6040516020818303038152906040528051906020012090506110b47f00000000000000000000000000000000000000000000000000000000000000008484846116c0565b15156001146110d55760405162461bcd60e51b81526004016108ab90612b9e565b836009546110e39190612c4e565b6007546040516370a0823160e01b8152336004820152620100009091046001600160a01b0316906370a0823190602401602060405180830381865afa158015611130573d6000803e3d6000fd5b505050506040513d601f19601f820116820180604052508101906111549190612be9565b10156111995760405162461bcd60e51b8152602060048201526014602482015273496e73756666696369656e742062616c616e636560601b60448201526064016108ab565b83600e546111a79190612b41565b600e55836111b6336002610844565b6111c09190612b41565b6005036111e257336000908152601160205260409020805460ff191660011790555b600760029054906101000a90046001600160a01b03166001600160a01b03166323b872dd3330876009546112169190612c4e565b6040516001600160e01b031960e086901b1681526001600160a01b03938416600482015292909116602483015260448201526064016020604051808303816000875af115801561126a573d6000803e3d6000fd5b505050506040513d601f19601f8201168201806040525081019061128e9190612c02565b506112ab33600286604051806020016040528060008152506118a7565b50505050565b6112b9611666565b60405163a9059cbb60e01b81526001600160a01b0383811660048301526024820183905284169063a9059cbb906044016020604051808303816000875af1158015611308573d6000803e3d6000fd5b505050506040513d601f19601f820116820180604052508101906112ab9190612c02565b6007546008546040516323b872dd60e01b81523360048201523060248201526044810191909152620100009091046001600160a01b0316906323b872dd906064016020604051808303816000875af115801561138c573d6000803e3d6000fd5b505050506040513d601f19601f820116820180604052508101906113b09190612c02565b506113cd33600180604051806020016040528060008152506118a7565b565b6113d7611666565b6113cd6000611c56565b6113ec338383611981565b5050565b6113f8611666565b6000828152600f602052604090206114108282612cb3565b50817f6bb7ff708619ba0610cba295a58592e0451dee2622938c8755667688daf3529b826040516114419190612365565b60405180910390a25050565b60606005805461093b90612a85565b6113ec338383611ca8565b6005805461147490612a85565b80601f01602080910402602001604051908101604052809291908181526020018280546114a090612a85565b80156114ed5780601f106114c2576101008083540402835291602001916114ed565b820191906000526020600020905b8154815290600101906020018083116114d057829003601f168201915b505050505081565b6113ec338383611d88565b6006805461147490612a85565b600f602052600090815260409020805461147490612a85565b6004805461147490612a85565b600080846040516020016115479190612abf565b6040516020818303038152906040528051906020012090506000610af17f00000000000000000000000000000000000000000000000000000000000000008686856116c0565b6001600160a01b0385163314806115a957506115a9853361075e565b6115c55760405162461bcd60e51b81526004016108ab90612adc565b610b408585858585611e8c565b6115da611666565b6001600160a01b03811661163f5760405162461bcd60e51b815260206004820152602660248201527f4f776e61626c653a206e6577206f776e657220697320746865207a65726f206160448201526564647265737360d01b60648201526084016108ab565b610a9481611c56565b60606006805461093b90612a85565b6001600160a01b03163b151590565b6003546001600160a01b031633146113cd5760405162461bcd60e51b815260206004820181905260248201527f4f776e61626c653a2063616c6c6572206973206e6f7420746865206f776e657260448201526064016108ab565b6000611702848480806020026020016040519081016040528093929190818152602001838360200280828437600092019190915250899250869150611fb69050565b95945050505050565b815183511461172c5760405162461bcd60e51b81526004016108ab90612d72565b6001600160a01b0384166117525760405162461bcd60e51b81526004016108ab90612dba565b3360005b845181101561183957600085828151811061177357611773612c1f565b60200260200101519050600085838151811061179157611791612c1f565b602090810291909101810151600084815280835260408082206001600160a01b038e1683529093529190912054909150818110156117e15760405162461bcd60e51b81526004016108ab90612dff565b6000838152602081815260408083206001600160a01b038e8116855292528083208585039055908b1682528120805484929061181e908490612b41565b925050819055505050508061183290612c35565b9050611756565b50846001600160a01b0316866001600160a01b0316826001600160a01b03167f4a39dc06d4c0dbc64b70af90fd698a233a518aa5d07e595d983b8c0526c8f7fb8787604051611889929190612e49565b60405180910390a461189f818787878787611fcc565b505050505050565b6001600160a01b0384166118cd5760405162461bcd60e51b81526004016108ab90612e6e565b3360006118d985612127565b905060006118e685612127565b90506000868152602081815260408083206001600160a01b038b16845290915281208054879290611918908490612b41565b909155505060408051878152602081018790526001600160a01b03808a1692600092918716917fc3d58168c5ae7397731d063d5bbf3d657854427343f4c083240f7aacaa2d0f62910160405180910390a461197883600089898989612172565b50505050505050565b6001600160a01b0383166119a75760405162461bcd60e51b81526004016108ab90612eaf565b80518251146119c85760405162461bcd60e51b81526004016108ab90612d72565b604080516020810190915260009081905233905b8351811015611a9e5760008482815181106119f9576119f9612c1f565b602002602001015190506000848381518110611a1757611a17612c1f565b602090810291909101810151600084815280835260408082206001600160a01b038c168352909352919091205490915081811015611a675760405162461bcd60e51b81526004016108ab90612ef2565b6000928352602083815260408085206001600160a01b038b1686529091529092209103905580611a9681612c35565b9150506119dc565b5060006001600160a01b0316846001600160a01b0316826001600160a01b03167f4a39dc06d4c0dbc64b70af90fd698a233a518aa5d07e595d983b8c0526c8f7fb8686604051611aef929190612e49565b60405180910390a46040805160208101909152600090526112ab565b6001600160a01b038416611b315760405162461bcd60e51b81526004016108ab90612e6e565b8151835114611b525760405162461bcd60e51b81526004016108ab90612d72565b3360005b8451811015611bee57838181518110611b7157611b71612c1f565b6020026020010151600080878481518110611b8e57611b8e612c1f565b602002602001015181526020019081526020016000206000886001600160a01b03166001600160a01b031681526020019081526020016000206000828254611bd69190612b41565b90915550819050611be681612c35565b915050611b56565b50846001600160a01b031660006001600160a01b0316826001600160a01b03167f4a39dc06d4c0dbc64b70af90fd698a233a518aa5d07e595d983b8c0526c8f7fb8787604051611c3f929190612e49565b60405180910390a4610b4081600087878787611fcc565b600380546001600160a01b038381166001600160a01b0319831681179093556040519116919082907f8be0079c531659141344cd1fd0a4f28419497f9722a3daafe3b4186f6b6457e090600090a35050565b816001600160a01b0316836001600160a01b031603611d1b5760405162461bcd60e51b815260206004820152602960248201527f455243313135353a2073657474696e6720617070726f76616c20737461747573604482015268103337b91039b2b63360b91b60648201526084016108ab565b6001600160a01b03838116600081815260016020908152604080832094871680845294825291829020805460ff191686151590811790915591519182527f17307eab39ab6107e8899845ad3d59bd9653f200f220920489ca2b5937696c31910160405180910390a3505050565b6001600160a01b038316611dae5760405162461bcd60e51b81526004016108ab90612eaf565b336000611dba84612127565b90506000611dc784612127565b60408051602080820183526000918290528882528181528282206001600160a01b038b1683529052205490915084811015611e145760405162461bcd60e51b81526004016108ab90612ef2565b6000868152602081815260408083206001600160a01b038b81168086529184528285208a8703905582518b81529384018a90529092908816917fc3d58168c5ae7397731d063d5bbf3d657854427343f4c083240f7aacaa2d0f62910160405180910390a4604080516020810190915260009052611978565b6001600160a01b038416611eb25760405162461bcd60e51b81526004016108ab90612dba565b336000611ebe85612127565b90506000611ecb85612127565b90506000868152602081815260408083206001600160a01b038c16845290915290205485811015611f0e5760405162461bcd60e51b81526004016108ab90612dff565b6000878152602081815260408083206001600160a01b038d8116855292528083208985039055908a16825281208054889290611f4b908490612b41565b909155505060408051888152602081018890526001600160a01b03808b16928c821692918816917fc3d58168c5ae7397731d063d5bbf3d657854427343f4c083240f7aacaa2d0f62910160405180910390a4611fab848a8a8a8a8a612172565b505050505050505050565b600082611fc3858461222d565b14949350505050565b6001600160a01b0384163b1561189f5760405163bc197c8160e01b81526001600160a01b0385169063bc197c81906120109089908990889088908890600401612f36565b6020604051808303816000875af192505050801561204b575060408051601f3d908101601f1916820190925261204891810190612f94565b60015b6120f757612057612fb1565b806308c379a003612090575061206b612fcd565b806120765750612092565b8060405162461bcd60e51b81526004016108ab9190612365565b505b60405162461bcd60e51b815260206004820152603460248201527f455243313135353a207472616e7366657220746f206e6f6e20455243313135356044820152732932b1b2b4bb32b91034b6b83632b6b2b73a32b960611b60648201526084016108ab565b6001600160e01b0319811663bc197c8160e01b146119785760405162461bcd60e51b81526004016108ab90613056565b6040805160018082528183019092526060916000919060208083019080368337019050509050828160008151811061216157612161612c1f565b602090810291909101015292915050565b6001600160a01b0384163b1561189f5760405163f23a6e6160e01b81526001600160a01b0385169063f23a6e61906121b6908990899088908890889060040161309e565b6020604051808303816000875af19250505080156121f1575060408051601f3d908101601f191682019092526121ee91810190612f94565b60015b6121fd57612057612fb1565b6001600160e01b0319811663f23a6e6160e01b146119785760405162461bcd60e51b81526004016108ab90613056565b600081815b8451811015610f0e5761225e8286838151811061225157612251612c1f565b6020026020010151612272565b91508061226a81612c35565b915050612232565b600081831061228e57600082815260208490526040902061229d565b60008381526020839052604090205b9392505050565b6001600160a01b0381168114610a9457600080fd5b600080604083850312156122cc57600080fd5b82356122d7816122a4565b946020939093013593505050565b6001600160e01b031981168114610a9457600080fd5b60006020828403121561230d57600080fd5b813561229d816122e5565b6000815180845260005b8181101561233e57602081850181015186830182015201612322565b81811115612350576000602083870101525b50601f01601f19169290920160200192915050565b60208152600061229d6020830184612318565b60006020828403121561238a57600080fd5b5035919050565b6000602082840312156123a357600080fd5b813561229d816122a4565b60008083601f8401126123c057600080fd5b5081356001600160401b038111156123d757600080fd5b6020830191508360208260051b85010111156123f257600080fd5b9250929050565b60008060006040848603121561240e57600080fd5b8335612419816122a4565b925060208401356001600160401b0381111561243457600080fd5b612440868287016123ae565b9497909650939450505050565b634e487b7160e01b600052604160045260246000fd5b601f8201601f191681016001600160401b03811182821017156124885761248861244d565b6040525050565b60006001600160401b038211156124a8576124a861244d565b5060051b60200190565b600082601f8301126124c357600080fd5b813560206124d08261248f565b6040516124dd8282612463565b83815260059390931b85018201928281019150868411156124fd57600080fd5b8286015b848110156125185780358352918301918301612501565b509695505050505050565b60006001600160401b0383111561253c5761253c61244d565b604051612553601f8501601f191660200182612463565b80915083815284848401111561256857600080fd5b83836020830137600060208583010152509392505050565b600082601f83011261259157600080fd5b61229d83833560208501612523565b600080600080600060a086880312156125b857600080fd5b85356125c3816122a4565b945060208601356125d3816122a4565b935060408601356001600160401b03808211156125ef57600080fd5b6125fb89838a016124b2565b9450606088013591508082111561261157600080fd5b61261d89838a016124b2565b9350608088013591508082111561263357600080fd5b5061264088828901612580565b9150509295509295909350565b6000806020838503121561266057600080fd5b82356001600160401b0381111561267657600080fd5b612682858286016123ae565b90969095509350505050565b600080604083850312156126a157600080fd5b82356001600160401b03808211156126b857600080fd5b818501915085601f8301126126cc57600080fd5b813560206126d98261248f565b6040516126e68282612463565b83815260059390931b850182019282810191508984111561270657600080fd5b948201945b8386101561272d57853561271e816122a4565b8252948201949082019061270b565b9650508601359250508082111561274357600080fd5b50612750858286016124b2565b9150509250929050565b600081518084526020808501945080840160005b8381101561278a5781518752958201959082019060010161276e565b509495945050505050565b60208152600061229d602083018461275a565b600080600080600060a086880312156127c057600080fd5b85356127cb816122a4565b945060208601356001600160401b03808211156127e757600080fd5b6127f389838a016124b2565b9550604088013591508082111561280957600080fd5b61281589838a016124b2565b9450606088013591508082111561282b57600080fd5b61283789838a016124b2565b9350608088013591508082111561284d57600080fd5b50612640888289016124b2565b60008060006040848603121561286f57600080fd5b8335925060208401356001600160401b0381111561243457600080fd5b6000806000606084860312156128a157600080fd5b83356128ac816122a4565b925060208401356128bc816122a4565b929592945050506040919091013590565b600080604083850312156128e057600080fd5b82356001600160401b03808211156128f757600080fd5b612903868387016124b2565b9350602085013591508082111561274357600080fd5b6000806040838503121561292c57600080fd5b8235915060208301356001600160401b0381111561294957600080fd5b8301601f8101851361295a57600080fd5b61275085823560208401612523565b8015158114610a9457600080fd5b6000806040838503121561298a57600080fd5b8235612995816122a4565b915060208301356129a581612969565b809150509250929050565b600080604083850312156129c357600080fd5b50508035926020909101359150565b6000602082840312156129e457600080fd5b813561229d81612969565b60008060408385031215612a0257600080fd5b8235612a0d816122a4565b915060208301356129a5816122a4565b600080600080600060a08688031215612a3557600080fd5b8535612a40816122a4565b94506020860135612a50816122a4565b9350604086013592506060860135915060808601356001600160401b03811115612a7957600080fd5b61264088828901612580565b600181811c90821680612a9957607f821691505b602082108103612ab957634e487b7160e01b600052602260045260246000fd5b50919050565b60609190911b6bffffffffffffffffffffffff1916815260140190565b6020808252602f908201527f455243313135353a2063616c6c6572206973206e6f7420746f6b656e206f776e60408201526e195c881b9bdc88185c1c1c9bdd9959608a1b606082015260800190565b634e487b7160e01b600052601160045260246000fd5b60008219821115612b5457612b54612b2b565b500190565b60208082526025908201527f546f6b656e20616c726561647920636c61696d65642062792074686973206164604082015264647265737360d81b606082015260800190565b6020808252602b908201527f41646472657373206e6f7420656c696769626c65202d20496e76616c6964206d60408201526a32b935b63290383937b7b360a91b606082015260800190565b600060208284031215612bfb57600080fd5b5051919050565b600060208284031215612c1457600080fd5b815161229d81612969565b634e487b7160e01b600052603260045260246000fd5b600060018201612c4757612c47612b2b565b5060010190565b6000816000190483118215151615612c6857612c68612b2b565b500290565b601f821115610de857600081815260208120601f850160051c81016020861015612c945750805b601f850160051c820191505b8181101561189f57828155600101612ca0565b81516001600160401b03811115612ccc57612ccc61244d565b612ce081612cda8454612a85565b84612c6d565b602080601f831160018114612d155760008415612cfd5750858301515b600019600386901b1c1916600185901b17855561189f565b600085815260208120601f198616915b82811015612d4457888601518255948401946001909101908401612d25565b5085821015612d625787850151600019600388901b60f8161c191681555b5050505050600190811b01905550565b60208082526028908201527f455243313135353a2069647320616e6420616d6f756e7473206c656e677468206040820152670dad2e6dac2e8c6d60c31b606082015260800190565b60208082526025908201527f455243313135353a207472616e7366657220746f20746865207a65726f206164604082015264647265737360d81b606082015260800190565b6020808252602a908201527f455243313135353a20696e73756666696369656e742062616c616e636520666f60408201526939103a3930b739b332b960b11b606082015260800190565b604081526000612e5c604083018561275a565b8281036020840152611702818561275a565b60208082526021908201527f455243313135353a206d696e7420746f20746865207a65726f206164647265736040820152607360f81b606082015260800190565b60208082526023908201527f455243313135353a206275726e2066726f6d20746865207a65726f206164647260408201526265737360e81b606082015260800190565b60208082526024908201527f455243313135353a206275726e20616d6f756e7420657863656564732062616c604082015263616e636560e01b606082015260800190565b6001600160a01b0386811682528516602082015260a060408201819052600090612f629083018661275a565b8281036060840152612f74818661275a565b90508281036080840152612f888185612318565b98975050505050505050565b600060208284031215612fa657600080fd5b815161229d816122e5565b600060033d1115612fca5760046000803e5060005160e01c5b90565b600060443d1015612fdb5790565b6040516003193d81016004833e81513d6001600160401b03816024840111818411171561300a57505050505090565b82850191508151818111156130225750505050505090565b843d870101602082850101111561303c5750505050505090565b61304b60208286010187612463565b509095945050505050565b60208082526028908201527f455243313135353a204552433131353552656365697665722072656a656374656040820152676420746f6b656e7360c01b606082015260800190565b6001600160a01b03868116825285166020820152604081018490526060810183905260a0608082018190526000906130d890830184612318565b97965050505050505056fea26469706673582212200633903ef3ad560aa5771643396692f12a5480c643da1836d2964327d478868064736f6c634300080f0033",
    "sourcePath": "/home/sunvia/decentology/safuu/erc1155/contracts/SafuuX.sol",
    "compiler": {
        "name": "solc",
        "version": "0.8.15+commit.e14f2714"
    },
    "functionHashes": {
        "FULL_NODE_COST()": "aacffcd1",
        "FULL_NODE_CURRENT_SUPPLY()": "f48ef7b3",
        "FULL_NODE_LIMIT()": "30b9ff72",
        "LITE_NODE_COST()": "3ea51491",
        "LITE_NODE_CURRENT_SUPPLY()": "5ce92989",
        "LITE_NODE_LIMIT()": "2fa5b0cb",
        "MAX_GOLDLIST_LIMIT()": "b3579f1b",
        "_goldListMerkleRoot()": "b39d80cb",
        "_isGoldListSaleActive()": "16895190",
        "_isWhiteListSaleActive()": "f11207d8",
        "_merkleTreeInputURI()": "c3c1e8ff",
        "_name()": "d28d8852",
        "_symbol()": "b09f1266",
        "_whiteListMerkleRoot()": "041fa44e",
        "balanceOf(address,uint256)": "00fdd58e",
        "balanceOfBatch(address[],uint256[])": "4e1273f4",
        "burn(uint256,uint256)": "b390c0ab",
        "burnBatch(uint256[],uint256[])": "83ca4b6f",
        "burnForMint(address,uint256[],uint256[],uint256[],uint256[])": "510f4104",
        "checkGoldListEligibility(address,bytes32[])": "df714a23",
        "checkWhiteListEligibility(address,bytes32[])": "2482751c",
        "fullNodeClaimed(address)": "122ef00b",
        "getMerkleTreeInputURI()": "ff9204fc",
        "isApprovedForAll(address,address)": "e985e9c5",
        "liteNodeClaimed(address)": "c0915009",
        "mintFullNode(bytes32[])": "3b822fc0",
        "mintLiteNode(uint256,bytes32[])": "59c37021",
        "name()": "06fdde03",
        "owner()": "8da5cb5b",
        "renounceOwnership()": "715018a6",
        "safeBatchTransferFrom(address,address,uint256[],uint256[],bytes)": "2eb2c2d6",
        "safeMint()": "6871ee40",
        "safeTransferFrom(address,address,uint256,uint256,bytes)": "f242432a",
        "safuuTokenAddress()": "9183614e",
        "setApprovalForAll(address,bool)": "a22cb465",
        "setGoldListSaleStatus(bool)": "ec75c2ec",
        "setURI(uint256,string)": "862440e2",
        "setWhiteListSaleStatus(bool)": "d55690cc",
        "supportsInterface(bytes4)": "01ffc9a7",
        "symbol()": "95d89b41",
        "tokenURI(uint256)": "c87b56dd",
        "transferOwnership(address)": "f2fde38b",
        "uri(uint256)": "0e89341c",
        "withdrawFunds()": "24600fc3",
        "withdrawTokens(address,address,uint256)": "5e35359e"
    },
    "gasEstimates": {
        "creation": {
            "codeDepositCost": "2513800",
            "executionCost": "infinite",
            "totalCost": "infinite"
        },
        "external": {
            "FULL_NODE_COST()": "2329",
            "FULL_NODE_CURRENT_SUPPLY()": "2416",
            "FULL_NODE_LIMIT()": "2330",
            "LITE_NODE_COST()": "2374",
            "LITE_NODE_CURRENT_SUPPLY()": "2351",
            "LITE_NODE_LIMIT()": "2440",
            "MAX_GOLDLIST_LIMIT()": "2373",
            "_goldListMerkleRoot()": "infinite",
            "_isGoldListSaleActive()": "2378",
            "_isWhiteListSaleActive()": "2387",
            "_merkleTreeInputURI()": "infinite",
            "_name()": "infinite",
            "_symbol()": "infinite",
            "_whiteListMerkleRoot()": "infinite",
            "balanceOf(address,uint256)": "2712",
            "balanceOfBatch(address[],uint256[])": "infinite",
            "burn(uint256,uint256)": "infinite",
            "burnBatch(uint256[],uint256[])": "infinite",
            "burnForMint(address,uint256[],uint256[],uint256[],uint256[])": "infinite",
            "checkGoldListEligibility(address,bytes32[])": "infinite",
            "checkWhiteListEligibility(address,bytes32[])": "infinite",
            "fullNodeClaimed(address)": "2571",
            "getMerkleTreeInputURI()": "infinite",
            "isApprovedForAll(address,address)": "infinite",
            "liteNodeClaimed(address)": "2680",
            "mintFullNode(bytes32[])": "infinite",
            "mintLiteNode(uint256,bytes32[])": "infinite",
            "name()": "infinite",
            "owner()": "2388",
            "renounceOwnership()": "infinite",
            "safeBatchTransferFrom(address,address,uint256[],uint256[],bytes)": "infinite",
            "safeMint()": "infinite",
            "safeTransferFrom(address,address,uint256,uint256,bytes)": "infinite",
            "safuuTokenAddress()": "2438",
            "setApprovalForAll(address,bool)": "infinite",
            "setGoldListSaleStatus(bool)": "24555",
            "setURI(uint256,string)": "infinite",
            "setWhiteListSaleStatus(bool)": "24636",
            "supportsInterface(bytes4)": "590",
            "symbol()": "infinite",
            "tokenURI(uint256)": "infinite",
            "transferOwnership(address)": "infinite",
            "uri(uint256)": "infinite",
            "withdrawFunds()": "infinite",
            "withdrawTokens(address,address,uint256)": "infinite"
        },
        "internal": {
            "_checkEligibility(bytes32,bytes32[] calldata,bytes32)": "infinite"
        }
    }
}