{
  "_format": "hh-sol-artifact-1",
  "contractName": "SafuuX",
  "sourceName": "contracts/SafuuX.sol",
  "abi": [
    {
      "inputs": [
        {
          "internalType": "string",
          "name": "name_",
          "type": "string"
        },
        {
          "internalType": "string",
          "name": "symbol_",
          "type": "string"
        },
        {
          "internalType": "bytes32",
          "name": "goldListMerkleRoot_",
          "type": "bytes32"
        },
        {
          "internalType": "bytes32",
          "name": "whiteListMerkleRoot_",
          "type": "bytes32"
        },
        {
          "internalType": "string",
          "name": "merkleTreeInputURI_",
          "type": "string"
        }
      ],
      "stateMutability": "nonpayable",
      "type": "constructor"
    },
    {
      "anonymous": false,
      "inputs": [
        {
          "indexed": true,
          "internalType": "address",
          "name": "account",
          "type": "address"
        },
        {
          "indexed": true,
          "internalType": "address",
          "name": "operator",
          "type": "address"
        },
        {
          "indexed": false,
          "internalType": "bool",
          "name": "approved",
          "type": "bool"
        }
      ],
      "name": "ApprovalForAll",
      "type": "event"
    },
    {
      "anonymous": false,
      "inputs": [
        {
          "indexed": true,
          "internalType": "address",
          "name": "previousOwner",
          "type": "address"
        },
        {
          "indexed": true,
          "internalType": "address",
          "name": "newOwner",
          "type": "address"
        }
      ],
      "name": "OwnershipTransferred",
      "type": "event"
    },
    {
      "anonymous": false,
      "inputs": [
        {
          "indexed": true,
          "internalType": "address",
          "name": "operator",
          "type": "address"
        },
        {
          "indexed": true,
          "internalType": "address",
          "name": "from",
          "type": "address"
        },
        {
          "indexed": true,
          "internalType": "address",
          "name": "to",
          "type": "address"
        },
        {
          "indexed": false,
          "internalType": "uint256[]",
          "name": "ids",
          "type": "uint256[]"
        },
        {
          "indexed": false,
          "internalType": "uint256[]",
          "name": "values",
          "type": "uint256[]"
        }
      ],
      "name": "TransferBatch",
      "type": "event"
    },
    {
      "anonymous": false,
      "inputs": [
        {
          "indexed": true,
          "internalType": "address",
          "name": "operator",
          "type": "address"
        },
        {
          "indexed": true,
          "internalType": "address",
          "name": "from",
          "type": "address"
        },
        {
          "indexed": true,
          "internalType": "address",
          "name": "to",
          "type": "address"
        },
        {
          "indexed": false,
          "internalType": "uint256",
          "name": "id",
          "type": "uint256"
        },
        {
          "indexed": false,
          "internalType": "uint256",
          "name": "value",
          "type": "uint256"
        }
      ],
      "name": "TransferSingle",
      "type": "event"
    },
    {
      "anonymous": false,
      "inputs": [
        {
          "indexed": false,
          "internalType": "string",
          "name": "value",
          "type": "string"
        },
        {
          "indexed": true,
          "internalType": "uint256",
          "name": "id",
          "type": "uint256"
        }
      ],
      "name": "URI",
      "type": "event"
    },
    {
      "inputs": [],
      "name": "FULL_NODE_CURRENT_SUPPLY",
      "outputs": [
        {
          "internalType": "uint256",
          "name": "",
          "type": "uint256"
        }
      ],
      "stateMutability": "view",
      "type": "function"
    },
    {
      "inputs": [],
      "name": "FULL_NODE_LIMIT",
      "outputs": [
        {
          "internalType": "uint256",
          "name": "",
          "type": "uint256"
        }
      ],
      "stateMutability": "view",
      "type": "function"
    },
    {
      "inputs": [],
      "name": "LITE_NODE_CURRENT_SUPPLY",
      "outputs": [
        {
          "internalType": "uint256",
          "name": "",
          "type": "uint256"
        }
      ],
      "stateMutability": "view",
      "type": "function"
    },
    {
      "inputs": [],
      "name": "LITE_NODE_LIMIT",
      "outputs": [
        {
          "internalType": "uint256",
          "name": "",
          "type": "uint256"
        }
      ],
      "stateMutability": "view",
      "type": "function"
    },
    {
      "inputs": [],
      "name": "_goldListMerkleRoot",
      "outputs": [
        {
          "internalType": "bytes32",
          "name": "",
          "type": "bytes32"
        }
      ],
      "stateMutability": "view",
      "type": "function"
    },
    {
      "inputs": [],
      "name": "_isGoldListSaleActive",
      "outputs": [
        {
          "internalType": "bool",
          "name": "",
          "type": "bool"
        }
      ],
      "stateMutability": "view",
      "type": "function"
    },
    {
      "inputs": [],
      "name": "_isWhiteListSaleActive",
      "outputs": [
        {
          "internalType": "bool",
          "name": "",
          "type": "bool"
        }
      ],
      "stateMutability": "view",
      "type": "function"
    },
    {
      "inputs": [],
      "name": "_merkleTreeInputURI",
      "outputs": [
        {
          "internalType": "string",
          "name": "",
          "type": "string"
        }
      ],
      "stateMutability": "view",
      "type": "function"
    },
    {
      "inputs": [],
      "name": "_name",
      "outputs": [
        {
          "internalType": "string",
          "name": "",
          "type": "string"
        }
      ],
      "stateMutability": "view",
      "type": "function"
    },
    {
      "inputs": [],
      "name": "_symbol",
      "outputs": [
        {
          "internalType": "string",
          "name": "",
          "type": "string"
        }
      ],
      "stateMutability": "view",
      "type": "function"
    },
    {
      "inputs": [],
      "name": "_whiteListMerkleRoot",
      "outputs": [
        {
          "internalType": "bytes32",
          "name": "",
          "type": "bytes32"
        }
      ],
      "stateMutability": "view",
      "type": "function"
    },
    {
      "inputs": [
        {
          "internalType": "address",
          "name": "account",
          "type": "address"
        },
        {
          "internalType": "uint256",
          "name": "id",
          "type": "uint256"
        }
      ],
      "name": "balanceOf",
      "outputs": [
        {
          "internalType": "uint256",
          "name": "",
          "type": "uint256"
        }
      ],
      "stateMutability": "view",
      "type": "function"
    },
    {
      "inputs": [
        {
          "internalType": "address[]",
          "name": "accounts",
          "type": "address[]"
        },
        {
          "internalType": "uint256[]",
          "name": "ids",
          "type": "uint256[]"
        }
      ],
      "name": "balanceOfBatch",
      "outputs": [
        {
          "internalType": "uint256[]",
          "name": "",
          "type": "uint256[]"
        }
      ],
      "stateMutability": "view",
      "type": "function"
    },
    {
      "inputs": [
        {
          "internalType": "uint256",
          "name": "_id",
          "type": "uint256"
        },
        {
          "internalType": "uint256",
          "name": "_amount",
          "type": "uint256"
        }
      ],
      "name": "burn",
      "outputs": [],
      "stateMutability": "nonpayable",
      "type": "function"
    },
    {
      "inputs": [
        {
          "internalType": "uint256[]",
          "name": "_ids",
          "type": "uint256[]"
        },
        {
          "internalType": "uint256[]",
          "name": "_amounts",
          "type": "uint256[]"
        }
      ],
      "name": "burnBatch",
      "outputs": [],
      "stateMutability": "nonpayable",
      "type": "function"
    },
    {
      "inputs": [
        {
          "internalType": "address",
          "name": "_from",
          "type": "address"
        },
        {
          "internalType": "uint256[]",
          "name": "_burnIds",
          "type": "uint256[]"
        },
        {
          "internalType": "uint256[]",
          "name": "_burnAmounts",
          "type": "uint256[]"
        },
        {
          "internalType": "uint256[]",
          "name": "_mintIds",
          "type": "uint256[]"
        },
        {
          "internalType": "uint256[]",
          "name": "_mintAmounts",
          "type": "uint256[]"
        }
      ],
      "name": "burnForMint",
      "outputs": [],
      "stateMutability": "nonpayable",
      "type": "function"
    },
    {
      "inputs": [
        {
          "internalType": "bytes32[]",
          "name": "merkleProof",
          "type": "bytes32[]"
        }
      ],
      "name": "checkGoldListEligibility",
      "outputs": [
        {
          "internalType": "bool",
          "name": "",
          "type": "bool"
        }
      ],
      "stateMutability": "view",
      "type": "function"
    },
    {
      "inputs": [
        {
          "internalType": "bytes32[]",
          "name": "merkleProof",
          "type": "bytes32[]"
        }
      ],
      "name": "checkWhiteListEligibility",
      "outputs": [
        {
          "internalType": "bool",
          "name": "",
          "type": "bool"
        }
      ],
      "stateMutability": "view",
      "type": "function"
    },
    {
      "inputs": [
        {
          "internalType": "address",
          "name": "",
          "type": "address"
        }
      ],
      "name": "fullNodeClaimed",
      "outputs": [
        {
          "internalType": "bool",
          "name": "",
          "type": "bool"
        }
      ],
      "stateMutability": "view",
      "type": "function"
    },
    {
      "inputs": [],
      "name": "getMerkleTreeInputURI",
      "outputs": [
        {
          "internalType": "string",
          "name": "",
          "type": "string"
        }
      ],
      "stateMutability": "view",
      "type": "function"
    },
    {
      "inputs": [
        {
          "internalType": "address",
          "name": "account",
          "type": "address"
        },
        {
          "internalType": "address",
          "name": "operator",
          "type": "address"
        }
      ],
      "name": "isApprovedForAll",
      "outputs": [
        {
          "internalType": "bool",
          "name": "",
          "type": "bool"
        }
      ],
      "stateMutability": "view",
      "type": "function"
    },
    {
      "inputs": [
        {
          "internalType": "address",
          "name": "",
          "type": "address"
        }
      ],
      "name": "liteNodeClaimed",
      "outputs": [
        {
          "internalType": "bool",
          "name": "",
          "type": "bool"
        }
      ],
      "stateMutability": "view",
      "type": "function"
    },
    {
      "inputs": [
        {
          "internalType": "bytes32[]",
          "name": "merkleProof",
          "type": "bytes32[]"
        }
      ],
      "name": "mintFullNode",
      "outputs": [],
      "stateMutability": "nonpayable",
      "type": "function"
    },
    {
      "inputs": [
        {
          "internalType": "uint256",
          "name": "_amount",
          "type": "uint256"
        },
        {
          "internalType": "bytes32[]",
          "name": "merkleProof",
          "type": "bytes32[]"
        }
      ],
      "name": "mintLiteNode",
      "outputs": [],
      "stateMutability": "nonpayable",
      "type": "function"
    },
    {
      "inputs": [],
      "name": "name",
      "outputs": [
        {
          "internalType": "string",
          "name": "",
          "type": "string"
        }
      ],
      "stateMutability": "view",
      "type": "function"
    },
    {
      "inputs": [],
      "name": "owner",
      "outputs": [
        {
          "internalType": "address",
          "name": "",
          "type": "address"
        }
      ],
      "stateMutability": "view",
      "type": "function"
    },
    {
      "inputs": [],
      "name": "renounceOwnership",
      "outputs": [],
      "stateMutability": "nonpayable",
      "type": "function"
    },
    {
      "inputs": [
        {
          "internalType": "address",
          "name": "from",
          "type": "address"
        },
        {
          "internalType": "address",
          "name": "to",
          "type": "address"
        },
        {
          "internalType": "uint256[]",
          "name": "ids",
          "type": "uint256[]"
        },
        {
          "internalType": "uint256[]",
          "name": "amounts",
          "type": "uint256[]"
        },
        {
          "internalType": "bytes",
          "name": "data",
          "type": "bytes"
        }
      ],
      "name": "safeBatchTransferFrom",
      "outputs": [],
      "stateMutability": "nonpayable",
      "type": "function"
    },
    {
      "inputs": [
        {
          "internalType": "address",
          "name": "from",
          "type": "address"
        },
        {
          "internalType": "address",
          "name": "to",
          "type": "address"
        },
        {
          "internalType": "uint256",
          "name": "id",
          "type": "uint256"
        },
        {
          "internalType": "uint256",
          "name": "amount",
          "type": "uint256"
        },
        {
          "internalType": "bytes",
          "name": "data",
          "type": "bytes"
        }
      ],
      "name": "safeTransferFrom",
      "outputs": [],
      "stateMutability": "nonpayable",
      "type": "function"
    },
    {
      "inputs": [
        {
          "internalType": "address",
          "name": "operator",
          "type": "address"
        },
        {
          "internalType": "bool",
          "name": "approved",
          "type": "bool"
        }
      ],
      "name": "setApprovalForAll",
      "outputs": [],
      "stateMutability": "nonpayable",
      "type": "function"
    },
    {
      "inputs": [
        {
          "internalType": "bool",
          "name": "_isActive",
          "type": "bool"
        }
      ],
      "name": "setGoldListSaleStatus",
      "outputs": [],
      "stateMutability": "nonpayable",
      "type": "function"
    },
    {
      "inputs": [
        {
          "internalType": "uint256",
          "name": "_id",
          "type": "uint256"
        },
        {
          "internalType": "string",
          "name": "_uri",
          "type": "string"
        }
      ],
      "name": "setURI",
      "outputs": [],
      "stateMutability": "nonpayable",
      "type": "function"
    },
    {
      "inputs": [
        {
          "internalType": "bool",
          "name": "_isActive",
          "type": "bool"
        }
      ],
      "name": "setWhiteListSaleStatus",
      "outputs": [],
      "stateMutability": "nonpayable",
      "type": "function"
    },
    {
      "inputs": [
        {
          "internalType": "bytes4",
          "name": "interfaceId",
          "type": "bytes4"
        }
      ],
      "name": "supportsInterface",
      "outputs": [
        {
          "internalType": "bool",
          "name": "",
          "type": "bool"
        }
      ],
      "stateMutability": "view",
      "type": "function"
    },
    {
      "inputs": [],
      "name": "symbol",
      "outputs": [
        {
          "internalType": "string",
          "name": "",
          "type": "string"
        }
      ],
      "stateMutability": "view",
      "type": "function"
    },
    {
      "inputs": [
        {
          "internalType": "uint256",
          "name": "",
          "type": "uint256"
        }
      ],
      "name": "tokenURI",
      "outputs": [
        {
          "internalType": "string",
          "name": "",
          "type": "string"
        }
      ],
      "stateMutability": "view",
      "type": "function"
    },
    {
      "inputs": [
        {
          "internalType": "address",
          "name": "newOwner",
          "type": "address"
        }
      ],
      "name": "transferOwnership",
      "outputs": [],
      "stateMutability": "nonpayable",
      "type": "function"
    },
    {
      "inputs": [
        {
          "internalType": "uint256",
          "name": "_id",
          "type": "uint256"
        }
      ],
      "name": "uri",
      "outputs": [
        {
          "internalType": "string",
          "name": "",
          "type": "string"
        }
      ],
      "stateMutability": "view",
      "type": "function"
    },
    {
      "inputs": [],
      "name": "withdrawFunds",
      "outputs": [],
      "stateMutability": "nonpayable",
      "type": "function"
    },
    {
      "inputs": [
        {
          "internalType": "contract IERC20",
          "name": "tokenContract",
          "type": "address"
        },
        {
          "internalType": "address",
          "name": "to",
          "type": "address"
        },
        {
          "internalType": "uint256",
          "name": "amount",
          "type": "uint256"
        }
      ],
      "name": "withdrawTokens",
      "outputs": [],
      "stateMutability": "nonpayable",
      "type": "function"
    }
  ],
  "bytecode": "0x60c06040526101f46008556105dc6009553480156200001d57600080fd5b50604051620055683803806200556883398181016040528101906200004391906200030e565b604051806020016040528060008152506200006481620000eb60201b60201c565b5062000085620000796200010760201b60201c565b6200010f60201b60201c565b84600490805190602001906200009d929190620001d5565b508360059080519060200190620000b6929190620001d5565b508060069080519060200190620000cf929190620001d5565b5082608081815250508160a0818152505050505050506200056f565b806002908051906020019062000103929190620001d5565b5050565b600033905090565b6000600360009054906101000a900473ffffffffffffffffffffffffffffffffffffffff16905081600360006101000a81548173ffffffffffffffffffffffffffffffffffffffff021916908373ffffffffffffffffffffffffffffffffffffffff1602179055508173ffffffffffffffffffffffffffffffffffffffff168173ffffffffffffffffffffffffffffffffffffffff167f8be0079c531659141344cd1fd0a4f28419497f9722a3daafe3b4186f6b6457e060405160405180910390a35050565b828054620001e3906200047a565b90600052602060002090601f01602090048101928262000207576000855562000253565b82601f106200022257805160ff191683800117855562000253565b8280016001018555821562000253579182015b828111156200025257825182559160200191906001019062000235565b5b50905062000262919062000266565b5090565b5b808211156200028157600081600090555060010162000267565b5090565b60006200029c620002968462000404565b620003db565b905082815260208101848484011115620002b557600080fd5b620002c284828562000444565b509392505050565b600081519050620002db8162000555565b92915050565b600082601f830112620002f357600080fd5b81516200030584826020860162000285565b91505092915050565b600080600080600060a086880312156200032757600080fd5b600086015167ffffffffffffffff8111156200034257600080fd5b6200035088828901620002e1565b955050602086015167ffffffffffffffff8111156200036e57600080fd5b6200037c88828901620002e1565b94505060406200038f88828901620002ca565b9350506060620003a288828901620002ca565b925050608086015167ffffffffffffffff811115620003c057600080fd5b620003ce88828901620002e1565b9150509295509295909350565b6000620003e7620003fa565b9050620003f58282620004b0565b919050565b6000604051905090565b600067ffffffffffffffff82111562000422576200042162000515565b5b6200042d8262000544565b9050602081019050919050565b6000819050919050565b60005b838110156200046457808201518184015260208101905062000447565b8381111562000474576000848401525b50505050565b600060028204905060018216806200049357607f821691505b60208210811415620004aa57620004a9620004e6565b5b50919050565b620004bb8262000544565b810181811067ffffffffffffffff82111715620004dd57620004dc62000515565b5b80604052505050565b7f4e487b7100000000000000000000000000000000000000000000000000000000600052602260045260246000fd5b7f4e487b7100000000000000000000000000000000000000000000000000000000600052604160045260246000fd5b6000601f19601f8301169050919050565b62000560816200043a565b81146200056c57600080fd5b50565b60805160a051614fb7620005b16000396000818161091b01528181610cbf015281816110f801526114750152600081816112c3015261155e0152614fb76000f3fe608060405234801561001057600080fd5b50600436106102475760003560e01c8063862440e21161013b578063c87b56dd116100b8578063f11207d81161007c578063f11207d8146106dc578063f242432a146106fa578063f2fde38b14610716578063f48ef7b314610732578063ff9204fc1461075057610247565b8063c87b56dd14610626578063d28d885214610656578063d55690cc14610674578063e985e9c514610690578063ec75c2ec146106c057610247565b8063b09f1266116100ff578063b09f126614610580578063b390c0ab1461059e578063b39d80cb146105ba578063c0915009146105d8578063c3c1e8ff1461060857610247565b8063862440e2146104dc5780638da5cb5b146104f857806395d89b4114610516578063994c3fe114610534578063a22cb4651461056457610247565b806330b9ff72116101c95780635ce929891161018d5780635ce929891461044c5780635e35359e1461046a5780636c733cf714610486578063715018a6146104b657806383ca4b6f146104c057610247565b806330b9ff72146103aa5780633b822fc0146103c85780634e1273f4146103e4578063510f41041461041457806359c370211461043057610247565b8063122ef00b11610210578063122ef00b14610318578063168951901461034857806324600fc3146103665780632eb2c2d6146103705780632fa5b0cb1461038c57610247565b8062fdd58e1461024c57806301ffc9a71461027c578063041fa44e146102ac57806306fdde03146102ca5780630e89341c146102e8575b600080fd5b610266600480360381019061026191906138e9565b61076e565b604051610273919061445b565b60405180910390f35b61029660048036038101906102919190613a94565b610837565b6040516102a391906141a3565b60405180910390f35b6102b4610919565b6040516102c191906141be565b60405180910390f35b6102d261093d565b6040516102df91906141d9565b60405180910390f35b61030260048036038101906102fd9190613b35565b6109cf565b60405161030f91906141d9565b60405180910390f35b610332600480360381019061032d9190613623565b610a74565b60405161033f91906141a3565b60405180910390f35b610350610a94565b60405161035d91906141a3565b60405180910390f35b61036e610aa7565b005b61038a60048036038101906103859190613688565b610af8565b005b610394610b99565b6040516103a1919061445b565b60405180910390f35b6103b2610b9f565b6040516103bf919061445b565b60405180910390f35b6103e260048036038101906103dd9190613991565b610ba5565b005b6103fe60048036038101906103f99190613925565b610db6565b60405161040b919061414a565b60405180910390f35b61042e600480360381019061042991906137d6565b610f67565b005b61044a60048036038101906104459190613b5e565b610f9c565b005b6104546111ef565b604051610461919061445b565b60405180910390f35b610484600480360381019061047f9190613ae6565b6111f5565b005b6104a0600480360381019061049b9190613991565b611290565b6040516104ad91906141a3565b60405180910390f35b6104be6112f7565b005b6104da60048036038101906104d591906139d6565b61130b565b005b6104f660048036038101906104f19190613bb6565b61131a565b005b610500611386565b60405161050d9190614044565b60405180910390f35b61051e6113b0565b60405161052b91906141d9565b60405180910390f35b61054e60048036038101906105499190613991565b611442565b60405161055b91906141a3565b60405180910390f35b61057e600480360381019061057991906138ad565b6114a9565b005b6105886114bf565b60405161059591906141d9565b60405180910390f35b6105b860048036038101906105b39190613c0a565b61154d565b005b6105c261155c565b6040516105cf91906141be565b60405180910390f35b6105f260048036038101906105ed9190613623565b611580565b6040516105ff91906141a3565b60405180910390f35b6106106115a0565b60405161061d91906141d9565b60405180910390f35b610640600480360381019061063b9190613b35565b61162e565b60405161064d91906141d9565b60405180910390f35b61065e6116ce565b60405161066b91906141d9565b60405180910390f35b61068e60048036038101906106899190613a42565b61175c565b005b6106aa60048036038101906106a5919061364c565b611779565b6040516106b791906141a3565b60405180910390f35b6106da60048036038101906106d59190613a42565b61180d565b005b6106e461182a565b6040516106f191906141a3565b60405180910390f35b610714600480360381019061070f9190613747565b61183d565b005b610730600480360381019061072b9190613623565b6118de565b005b61073a611962565b604051610747919061445b565b60405180910390f35b610758611968565b60405161076591906141d9565b60405180910390f35b60008073ffffffffffffffffffffffffffffffffffffffff168373ffffffffffffffffffffffffffffffffffffffff1614156107df576040517f08c379a00000000000000000000000000000000000000000000000000000000081526004016107d6906142bb565b60405180910390fd5b60008083815260200190815260200160002060008473ffffffffffffffffffffffffffffffffffffffff1673ffffffffffffffffffffffffffffffffffffffff16815260200190815260200160002054905092915050565b60007fd9b67a26000000000000000000000000000000000000000000000000000000007bffffffffffffffffffffffffffffffffffffffffffffffffffffffff1916827bffffffffffffffffffffffffffffffffffffffffffffffffffffffff1916148061090257507f0e89341c000000000000000000000000000000000000000000000000000000007bffffffffffffffffffffffffffffffffffffffffffffffffffffffff1916827bffffffffffffffffffffffffffffffffffffffffffffffffffffffff1916145b806109125750610911826119fa565b5b9050919050565b7f000000000000000000000000000000000000000000000000000000000000000081565b60606004805461094c90614717565b80601f016020809104026020016040519081016040528092919081815260200182805461097890614717565b80156109c55780601f1061099a576101008083540402835291602001916109c5565b820191906000526020600020905b8154815290600101906020018083116109a857829003601f168201915b5050505050905090565b6060600c600083815260200190815260200160002080546109ef90614717565b80601f0160208091040260200160405190810160405280929190818152602001828054610a1b90614717565b8015610a685780601f10610a3d57610100808354040283529160200191610a68565b820191906000526020600020905b815481529060010190602001808311610a4b57829003601f168201915b50505050509050919050565b600d6020528060005260406000206000915054906101000a900460ff1681565b600760009054906101000a900460ff1681565b610aaf611a64565b3373ffffffffffffffffffffffffffffffffffffffff166108fc479081150290604051600060405180830381858888f19350505050158015610af5573d6000803e3d6000fd5b50565b610b00611ae2565b73ffffffffffffffffffffffffffffffffffffffff168573ffffffffffffffffffffffffffffffffffffffff161480610b465750610b4585610b40611ae2565b611779565b5b610b85576040517f08c379a0000000000000000000000000000000000000000000000000000000008152600401610b7c9061421b565b60405180910390fd5b610b928585858585611aea565b5050505050565b60095481565b60085481565b6008546001600a54610bb791906145ef565b1115610bf8576040517f08c379a0000000000000000000000000000000000000000000000000000000008152600401610bef9061443b565b60405180910390fd5b60001515600d60003373ffffffffffffffffffffffffffffffffffffffff1673ffffffffffffffffffffffffffffffffffffffff16815260200190815260200160002060009054906101000a900460ff16151514610c8b576040517f08c379a0000000000000000000000000000000000000000000000000000000008152600401610c829061441b565b60405180910390fd5b600033604051602001610c9e9190614029565b60405160208183030381529060405280519060200120905060011515610ce67f0000000000000000000000000000000000000000000000000000000000000000858585611e58565b151514610d28576040517f08c379a0000000000000000000000000000000000000000000000000000000008152600401610d1f9061425b565b60405180910390fd5b6001600a54610d3791906145ef565b600a819055506001600d60003373ffffffffffffffffffffffffffffffffffffffff1673ffffffffffffffffffffffffffffffffffffffff16815260200190815260200160002060006101000a81548160ff021916908315150217905550610db13360018060405180602001604052806000815250611eb0565b505050565b60608151835114610dfc576040517f08c379a0000000000000000000000000000000000000000000000000000000008152600401610df39061439b565b60405180910390fd5b6000835167ffffffffffffffff811115610e3f577f4e487b7100000000000000000000000000000000000000000000000000000000600052604160045260246000fd5b604051908082528060200260200182016040528015610e6d5781602001602082028036833780820191505090505b50905060005b8451811015610f5c57610f06858281518110610eb8577f4e487b7100000000000000000000000000000000000000000000000000000000600052603260045260246000fd5b6020026020010151858381518110610ef9577f4e487b7100000000000000000000000000000000000000000000000000000000600052603260045260246000fd5b602002602001015161076e565b828281518110610f3f577f4e487b7100000000000000000000000000000000000000000000000000000000600052603260045260246000fd5b60200260200101818152505080610f559061477a565b9050610e73565b508091505092915050565b610f6f611a64565b610f7a858585612061565b610f958583836040518060200160405280600081525061237c565b5050505050565b60068310610fdf576040517f08c379a0000000000000000000000000000000000000000000000000000000008152600401610fd69061435b565b60405180910390fd5b60095483600b54610ff091906145ef565b1115611031576040517f08c379a0000000000000000000000000000000000000000000000000000000008152600401611028906143bb565b60405180910390fd5b60001515600e60003373ffffffffffffffffffffffffffffffffffffffff1673ffffffffffffffffffffffffffffffffffffffff16815260200190815260200160002060009054906101000a900460ff161515146110c4576040517f08c379a00000000000000000000000000000000000000000000000000000000081526004016110bb9061441b565b60405180910390fd5b6000336040516020016110d79190614029565b6040516020818303038152906040528051906020012090506001151561111f7f0000000000000000000000000000000000000000000000000000000000000000858585611e58565b151514611161576040517f08c379a00000000000000000000000000000000000000000000000000000000081526004016111589061425b565b60405180910390fd5b83600b5461116f91906145ef565b600b819055506001600e60003373ffffffffffffffffffffffffffffffffffffffff1673ffffffffffffffffffffffffffffffffffffffff16815260200190815260200160002060006101000a81548160ff0219169083151502179055506111e93360028660405180602001604052806000815250611eb0565b50505050565b600b5481565b6111fd611a64565b8273ffffffffffffffffffffffffffffffffffffffff1663a9059cbb83836040518363ffffffff1660e01b8152600401611238929190614121565b602060405180830381600087803b15801561125257600080fd5b505af1158015611266573d6000803e3d6000fd5b505050506040513d601f19601f8201168201806040525081019061128a9190613a6b565b50505050565b600080336040516020016112a49190614029565b60405160208183030381529060405280519060200120905060006112ea7f0000000000000000000000000000000000000000000000000000000000000000868685611e58565b9050809250505092915050565b6112ff611a64565b61130960006125f5565b565b611316338383612061565b5050565b611322611a64565b80600c600084815260200190815260200160002090805190602001906113499291906132a7565b50817f6bb7ff708619ba0610cba295a58592e0451dee2622938c8755667688daf3529b8260405161137a91906141d9565b60405180910390a25050565b6000600360009054906101000a900473ffffffffffffffffffffffffffffffffffffffff16905090565b6060600580546113bf90614717565b80601f01602080910402602001604051908101604052809291908181526020018280546113eb90614717565b80156114385780601f1061140d57610100808354040283529160200191611438565b820191906000526020600020905b81548152906001019060200180831161141b57829003601f168201915b5050505050905090565b600080336040516020016114569190614029565b604051602081830303815290604052805190602001209050600061149c7f0000000000000000000000000000000000000000000000000000000000000000868685611e58565b9050809250505092915050565b6114bb6114b4611ae2565b83836126bb565b5050565b600580546114cc90614717565b80601f01602080910402602001604051908101604052809291908181526020018280546114f890614717565b80156115455780601f1061151a57610100808354040283529160200191611545565b820191906000526020600020905b81548152906001019060200180831161152857829003601f168201915b505050505081565b611558338383612828565b5050565b7f000000000000000000000000000000000000000000000000000000000000000081565b600e6020528060005260406000206000915054906101000a900460ff1681565b600680546115ad90614717565b80601f01602080910402602001604051908101604052809291908181526020018280546115d990614717565b80156116265780601f106115fb57610100808354040283529160200191611626565b820191906000526020600020905b81548152906001019060200180831161160957829003601f168201915b505050505081565b600c602052806000526040600020600091509050805461164d90614717565b80601f016020809104026020016040519081016040528092919081815260200182805461167990614717565b80156116c65780601f1061169b576101008083540402835291602001916116c6565b820191906000526020600020905b8154815290600101906020018083116116a957829003601f168201915b505050505081565b600480546116db90614717565b80601f016020809104026020016040519081016040528092919081815260200182805461170790614717565b80156117545780601f1061172957610100808354040283529160200191611754565b820191906000526020600020905b81548152906001019060200180831161173757829003601f168201915b505050505081565b80600760016101000a81548160ff02191690831515021790555050565b6000600160008473ffffffffffffffffffffffffffffffffffffffff1673ffffffffffffffffffffffffffffffffffffffff16815260200190815260200160002060008373ffffffffffffffffffffffffffffffffffffffff1673ffffffffffffffffffffffffffffffffffffffff16815260200190815260200160002060009054906101000a900460ff16905092915050565b80600760006101000a81548160ff02191690831515021790555050565b600760019054906101000a900460ff1681565b611845611ae2565b73ffffffffffffffffffffffffffffffffffffffff168573ffffffffffffffffffffffffffffffffffffffff16148061188b575061188a85611885611ae2565b611779565b5b6118ca576040517f08c379a00000000000000000000000000000000000000000000000000000000081526004016118c19061421b565b60405180910390fd5b6118d78585858585612a6f565b5050505050565b6118e6611a64565b600073ffffffffffffffffffffffffffffffffffffffff168173ffffffffffffffffffffffffffffffffffffffff161415611956576040517f08c379a000000000000000000000000000000000000000000000000000000000815260040161194d9061427b565b60405180910390fd5b61195f816125f5565b50565b600a5481565b60606006805461197790614717565b80601f01602080910402602001604051908101604052809291908181526020018280546119a390614717565b80156119f05780601f106119c5576101008083540402835291602001916119f0565b820191906000526020600020905b8154815290600101906020018083116119d357829003601f168201915b5050505050905090565b60007f01ffc9a7000000000000000000000000000000000000000000000000000000007bffffffffffffffffffffffffffffffffffffffffffffffffffffffff1916827bffffffffffffffffffffffffffffffffffffffffffffffffffffffff1916149050919050565b611a6c611ae2565b73ffffffffffffffffffffffffffffffffffffffff16611a8a611386565b73ffffffffffffffffffffffffffffffffffffffff1614611ae0576040517f08c379a0000000000000000000000000000000000000000000000000000000008152600401611ad79061433b565b60405180910390fd5b565b600033905090565b8151835114611b2e576040517f08c379a0000000000000000000000000000000000000000000000000000000008152600401611b25906143db565b60405180910390fd5b600073ffffffffffffffffffffffffffffffffffffffff168473ffffffffffffffffffffffffffffffffffffffff161415611b9e576040517f08c379a0000000000000000000000000000000000000000000000000000000008152600401611b95906142db565b60405180910390fd5b6000611ba8611ae2565b9050611bb8818787878787612d0b565b60005b8451811015611db5576000858281518110611bff577f4e487b7100000000000000000000000000000000000000000000000000000000600052603260045260246000fd5b602002602001015190506000858381518110611c44577f4e487b7100000000000000000000000000000000000000000000000000000000600052603260045260246000fd5b60200260200101519050600080600084815260200190815260200160002060008b73ffffffffffffffffffffffffffffffffffffffff1673ffffffffffffffffffffffffffffffffffffffff16815260200190815260200160002054905081811015611ce5576040517f08c379a0000000000000000000000000000000000000000000000000000000008152600401611cdc9061431b565b60405180910390fd5b81810360008085815260200190815260200160002060008c73ffffffffffffffffffffffffffffffffffffffff1673ffffffffffffffffffffffffffffffffffffffff168152602001908152602001600020819055508160008085815260200190815260200160002060008b73ffffffffffffffffffffffffffffffffffffffff1673ffffffffffffffffffffffffffffffffffffffff1681526020019081526020016000206000828254611d9a91906145ef565b9250508190555050505080611dae9061477a565b9050611bbb565b508473ffffffffffffffffffffffffffffffffffffffff168673ffffffffffffffffffffffffffffffffffffffff168273ffffffffffffffffffffffffffffffffffffffff167f4a39dc06d4c0dbc64b70af90fd698a233a518aa5d07e595d983b8c0526c8f7fb8787604051611e2c92919061416c565b60405180910390a4611e42818787878787612d13565b611e50818787878787612d1b565b505050505050565b6000611ea6848480806020026020016040519081016040528093929190818152602001838360200280828437600081840152601f19601f820116905080830192505050505050508684612f02565b9050949350505050565b600073ffffffffffffffffffffffffffffffffffffffff168473ffffffffffffffffffffffffffffffffffffffff161415611f20576040517f08c379a0000000000000000000000000000000000000000000000000000000008152600401611f17906143fb565b60405180910390fd5b6000611f2a611ae2565b90506000611f3785612f19565b90506000611f4485612f19565b9050611f5583600089858589612d0b565b8460008088815260200190815260200160002060008973ffffffffffffffffffffffffffffffffffffffff1673ffffffffffffffffffffffffffffffffffffffff1681526020019081526020016000206000828254611fb491906145ef565b925050819055508673ffffffffffffffffffffffffffffffffffffffff16600073ffffffffffffffffffffffffffffffffffffffff168473ffffffffffffffffffffffffffffffffffffffff167fc3d58168c5ae7397731d063d5bbf3d657854427343f4c083240f7aacaa2d0f628989604051612032929190614476565b60405180910390a461204983600089858589612d13565b61205883600089898989612fdf565b50505050505050565b600073ffffffffffffffffffffffffffffffffffffffff168373ffffffffffffffffffffffffffffffffffffffff1614156120d1576040517f08c379a00000000000000000000000000000000000000000000000000000000081526004016120c8906142fb565b60405180910390fd5b8051825114612115576040517f08c379a000000000000000000000000000000000000000000000000000000000815260040161210c906143db565b60405180910390fd5b600061211f611ae2565b905061213f81856000868660405180602001604052806000815250612d0b565b60005b83518110156122d8576000848281518110612186577f4e487b7100000000000000000000000000000000000000000000000000000000600052603260045260246000fd5b6020026020010151905060008483815181106121cb577f4e487b7100000000000000000000000000000000000000000000000000000000600052603260045260246000fd5b60200260200101519050600080600084815260200190815260200160002060008973ffffffffffffffffffffffffffffffffffffffff1673ffffffffffffffffffffffffffffffffffffffff1681526020019081526020016000205490508181101561226c576040517f08c379a00000000000000000000000000000000000000000000000000000000081526004016122639061429b565b60405180910390fd5b81810360008085815260200190815260200160002060008a73ffffffffffffffffffffffffffffffffffffffff1673ffffffffffffffffffffffffffffffffffffffff1681526020019081526020016000208190555050505080806122d09061477a565b915050612142565b50600073ffffffffffffffffffffffffffffffffffffffff168473ffffffffffffffffffffffffffffffffffffffff168273ffffffffffffffffffffffffffffffffffffffff167f4a39dc06d4c0dbc64b70af90fd698a233a518aa5d07e595d983b8c0526c8f7fb868660405161235092919061416c565b60405180910390a461237681856000868660405180602001604052806000815250612d13565b50505050565b600073ffffffffffffffffffffffffffffffffffffffff168473ffffffffffffffffffffffffffffffffffffffff1614156123ec576040517f08c379a00000000000000000000000000000000000000000000000000000000081526004016123e3906143fb565b60405180910390fd5b8151835114612430576040517f08c379a0000000000000000000000000000000000000000000000000000000008152600401612427906143db565b60405180910390fd5b600061243a611ae2565b905061244b81600087878787612d0b565b60005b845181101561255057838181518110612490577f4e487b7100000000000000000000000000000000000000000000000000000000600052603260045260246000fd5b60200260200101516000808784815181106124d4577f4e487b7100000000000000000000000000000000000000000000000000000000600052603260045260246000fd5b6020026020010151815260200190815260200160002060008873ffffffffffffffffffffffffffffffffffffffff1673ffffffffffffffffffffffffffffffffffffffff168152602001908152602001600020600082825461253691906145ef565b9250508190555080806125489061477a565b91505061244e565b508473ffffffffffffffffffffffffffffffffffffffff16600073ffffffffffffffffffffffffffffffffffffffff168273ffffffffffffffffffffffffffffffffffffffff167f4a39dc06d4c0dbc64b70af90fd698a233a518aa5d07e595d983b8c0526c8f7fb87876040516125c892919061416c565b60405180910390a46125df81600087878787612d13565b6125ee81600087878787612d1b565b5050505050565b6000600360009054906101000a900473ffffffffffffffffffffffffffffffffffffffff16905081600360006101000a81548173ffffffffffffffffffffffffffffffffffffffff021916908373ffffffffffffffffffffffffffffffffffffffff1602179055508173ffffffffffffffffffffffffffffffffffffffff168173ffffffffffffffffffffffffffffffffffffffff167f8be0079c531659141344cd1fd0a4f28419497f9722a3daafe3b4186f6b6457e060405160405180910390a35050565b8173ffffffffffffffffffffffffffffffffffffffff168373ffffffffffffffffffffffffffffffffffffffff16141561272a576040517f08c379a00000000000000000000000000000000000000000000000000000000081526004016127219061437b565b60405180910390fd5b80600160008573ffffffffffffffffffffffffffffffffffffffff1673ffffffffffffffffffffffffffffffffffffffff16815260200190815260200160002060008473ffffffffffffffffffffffffffffffffffffffff1673ffffffffffffffffffffffffffffffffffffffff16815260200190815260200160002060006101000a81548160ff0219169083151502179055508173ffffffffffffffffffffffffffffffffffffffff168373ffffffffffffffffffffffffffffffffffffffff167f17307eab39ab6107e8899845ad3d59bd9653f200f220920489ca2b5937696c318360405161281b91906141a3565b60405180910390a3505050565b600073ffffffffffffffffffffffffffffffffffffffff168373ffffffffffffffffffffffffffffffffffffffff161415612898576040517f08c379a000000000000000000000000000000000000000000000000000000000815260040161288f906142fb565b60405180910390fd5b60006128a2611ae2565b905060006128af84612f19565b905060006128bc84612f19565b90506128dc83876000858560405180602001604052806000815250612d0b565b600080600087815260200190815260200160002060008873ffffffffffffffffffffffffffffffffffffffff1673ffffffffffffffffffffffffffffffffffffffff16815260200190815260200160002054905084811015612973576040517f08c379a000000000000000000000000000000000000000000000000000000000815260040161296a9061429b565b60405180910390fd5b84810360008088815260200190815260200160002060008973ffffffffffffffffffffffffffffffffffffffff1673ffffffffffffffffffffffffffffffffffffffff16815260200190815260200160002081905550600073ffffffffffffffffffffffffffffffffffffffff168773ffffffffffffffffffffffffffffffffffffffff168573ffffffffffffffffffffffffffffffffffffffff167fc3d58168c5ae7397731d063d5bbf3d657854427343f4c083240f7aacaa2d0f628989604051612a40929190614476565b60405180910390a4612a6684886000868660405180602001604052806000815250612d13565b50505050505050565b600073ffffffffffffffffffffffffffffffffffffffff168473ffffffffffffffffffffffffffffffffffffffff161415612adf576040517f08c379a0000000000000000000000000000000000000000000000000000000008152600401612ad6906142db565b60405180910390fd5b6000612ae9611ae2565b90506000612af685612f19565b90506000612b0385612f19565b9050612b13838989858589612d0b565b600080600088815260200190815260200160002060008a73ffffffffffffffffffffffffffffffffffffffff1673ffffffffffffffffffffffffffffffffffffffff16815260200190815260200160002054905085811015612baa576040517f08c379a0000000000000000000000000000000000000000000000000000000008152600401612ba19061431b565b60405180910390fd5b85810360008089815260200190815260200160002060008b73ffffffffffffffffffffffffffffffffffffffff1673ffffffffffffffffffffffffffffffffffffffff168152602001908152602001600020819055508560008089815260200190815260200160002060008a73ffffffffffffffffffffffffffffffffffffffff1673ffffffffffffffffffffffffffffffffffffffff1681526020019081526020016000206000828254612c5f91906145ef565b925050819055508773ffffffffffffffffffffffffffffffffffffffff168973ffffffffffffffffffffffffffffffffffffffff168573ffffffffffffffffffffffffffffffffffffffff167fc3d58168c5ae7397731d063d5bbf3d657854427343f4c083240f7aacaa2d0f628a8a604051612cdc929190614476565b60405180910390a4612cf2848a8a86868a612d13565b612d00848a8a8a8a8a612fdf565b505050505050505050565b505050505050565b505050505050565b612d3a8473ffffffffffffffffffffffffffffffffffffffff166131c6565b15612efa578373ffffffffffffffffffffffffffffffffffffffff1663bc197c8187878686866040518663ffffffff1660e01b8152600401612d8095949392919061405f565b602060405180830381600087803b158015612d9a57600080fd5b505af1925050508015612dcb57506040513d601f19601f82011682018060405250810190612dc89190613abd565b60015b612e7157612dd7614874565b806308c379a01415612e345750612dec614e78565b80612df75750612e36565b806040517f08c379a0000000000000000000000000000000000000000000000000000000008152600401612e2b91906141d9565b60405180910390fd5b505b6040517f08c379a0000000000000000000000000000000000000000000000000000000008152600401612e68906141fb565b60405180910390fd5b63bc197c8160e01b7bffffffffffffffffffffffffffffffffffffffffffffffffffffffff1916817bffffffffffffffffffffffffffffffffffffffffffffffffffffffff191614612ef8576040517f08c379a0000000000000000000000000000000000000000000000000000000008152600401612eef9061423b565b60405180910390fd5b505b505050505050565b600082612f0f85846131e9565b1490509392505050565b60606000600167ffffffffffffffff811115612f5e577f4e487b7100000000000000000000000000000000000000000000000000000000600052604160045260246000fd5b604051908082528060200260200182016040528015612f8c5781602001602082028036833780820191505090505b5090508281600081518110612fca577f4e487b7100000000000000000000000000000000000000000000000000000000600052603260045260246000fd5b60200260200101818152505080915050919050565b612ffe8473ffffffffffffffffffffffffffffffffffffffff166131c6565b156131be578373ffffffffffffffffffffffffffffffffffffffff1663f23a6e6187878686866040518663ffffffff1660e01b81526004016130449594939291906140c7565b602060405180830381600087803b15801561305e57600080fd5b505af192505050801561308f57506040513d601f19601f8201168201806040525081019061308c9190613abd565b60015b6131355761309b614874565b806308c379a014156130f857506130b0614e78565b806130bb57506130fa565b806040517f08c379a00000000000000000000000000000000000000000000000000000000081526004016130ef91906141d9565b60405180910390fd5b505b6040517f08c379a000000000000000000000000000000000000000000000000000000000815260040161312c906141fb565b60405180910390fd5b63f23a6e6160e01b7bffffffffffffffffffffffffffffffffffffffffffffffffffffffff1916817bffffffffffffffffffffffffffffffffffffffffffffffffffffffff1916146131bc576040517f08c379a00000000000000000000000000000000000000000000000000000000081526004016131b39061423b565b60405180910390fd5b505b505050505050565b6000808273ffffffffffffffffffffffffffffffffffffffff163b119050919050565b60008082905060005b845181101561325a5761324582868381518110613238577f4e487b7100000000000000000000000000000000000000000000000000000000600052603260045260246000fd5b6020026020010151613265565b915080806132529061477a565b9150506131f2565b508091505092915050565b600081831061327d576132788284613290565b613288565b6132878383613290565b5b905092915050565b600082600052816020526040600020905092915050565b8280546132b390614717565b90600052602060002090601f0160209004810192826132d5576000855561331c565b82601f106132ee57805160ff191683800117855561331c565b8280016001018555821561331c579182015b8281111561331b578251825591602001919060010190613300565b5b509050613329919061332d565b5090565b5b8082111561334657600081600090555060010161332e565b5090565b600061335d613358846144c4565b61449f565b9050808382526020820190508285602086028201111561337c57600080fd5b60005b858110156133ac5781613392888261349e565b84526020840193506020830192505060018101905061337f565b5050509392505050565b60006133c96133c4846144f0565b61449f565b905080838252602082019050828560208602820111156133e857600080fd5b60005b8581101561341857816133fe888261360e565b8452602084019350602083019250506001810190506133eb565b5050509392505050565b60006134356134308461451c565b61449f565b90508281526020810184848401111561344d57600080fd5b6134588482856146d5565b509392505050565b600061347361346e8461454d565b61449f565b90508281526020810184848401111561348b57600080fd5b6134968482856146d5565b509392505050565b6000813590506134ad81614f0e565b92915050565b600082601f8301126134c457600080fd5b81356134d484826020860161334a565b91505092915050565b60008083601f8401126134ef57600080fd5b8235905067ffffffffffffffff81111561350857600080fd5b60208301915083602082028301111561352057600080fd5b9250929050565b600082601f83011261353857600080fd5b81356135488482602086016133b6565b91505092915050565b60008135905061356081614f25565b92915050565b60008151905061357581614f25565b92915050565b60008135905061358a81614f3c565b92915050565b60008151905061359f81614f3c565b92915050565b600082601f8301126135b657600080fd5b81356135c6848260208601613422565b91505092915050565b6000813590506135de81614f53565b92915050565b600082601f8301126135f557600080fd5b8135613605848260208601613460565b91505092915050565b60008135905061361d81614f6a565b92915050565b60006020828403121561363557600080fd5b60006136438482850161349e565b91505092915050565b6000806040838503121561365f57600080fd5b600061366d8582860161349e565b925050602061367e8582860161349e565b9150509250929050565b600080600080600060a086880312156136a057600080fd5b60006136ae8882890161349e565b95505060206136bf8882890161349e565b945050604086013567ffffffffffffffff8111156136dc57600080fd5b6136e888828901613527565b935050606086013567ffffffffffffffff81111561370557600080fd5b61371188828901613527565b925050608086013567ffffffffffffffff81111561372e57600080fd5b61373a888289016135a5565b9150509295509295909350565b600080600080600060a0868803121561375f57600080fd5b600061376d8882890161349e565b955050602061377e8882890161349e565b945050604061378f8882890161360e565b93505060606137a08882890161360e565b925050608086013567ffffffffffffffff8111156137bd57600080fd5b6137c9888289016135a5565b9150509295509295909350565b600080600080600060a086880312156137ee57600080fd5b60006137fc8882890161349e565b955050602086013567ffffffffffffffff81111561381957600080fd5b61382588828901613527565b945050604086013567ffffffffffffffff81111561384257600080fd5b61384e88828901613527565b935050606086013567ffffffffffffffff81111561386b57600080fd5b61387788828901613527565b925050608086013567ffffffffffffffff81111561389457600080fd5b6138a088828901613527565b9150509295509295909350565b600080604083850312156138c057600080fd5b60006138ce8582860161349e565b92505060206138df85828601613551565b9150509250929050565b600080604083850312156138fc57600080fd5b600061390a8582860161349e565b925050602061391b8582860161360e565b9150509250929050565b6000806040838503121561393857600080fd5b600083013567ffffffffffffffff81111561395257600080fd5b61395e858286016134b3565b925050602083013567ffffffffffffffff81111561397b57600080fd5b61398785828601613527565b9150509250929050565b600080602083850312156139a457600080fd5b600083013567ffffffffffffffff8111156139be57600080fd5b6139ca858286016134dd565b92509250509250929050565b600080604083850312156139e957600080fd5b600083013567ffffffffffffffff811115613a0357600080fd5b613a0f85828601613527565b925050602083013567ffffffffffffffff811115613a2c57600080fd5b613a3885828601613527565b9150509250929050565b600060208284031215613a5457600080fd5b6000613a6284828501613551565b91505092915050565b600060208284031215613a7d57600080fd5b6000613a8b84828501613566565b91505092915050565b600060208284031215613aa657600080fd5b6000613ab48482850161357b565b91505092915050565b600060208284031215613acf57600080fd5b6000613add84828501613590565b91505092915050565b600080600060608486031215613afb57600080fd5b6000613b09868287016135cf565b9350506020613b1a8682870161349e565b9250506040613b2b8682870161360e565b9150509250925092565b600060208284031215613b4757600080fd5b6000613b558482850161360e565b91505092915050565b600080600060408486031215613b7357600080fd5b6000613b818682870161360e565b935050602084013567ffffffffffffffff811115613b9e57600080fd5b613baa868287016134dd565b92509250509250925092565b60008060408385031215613bc957600080fd5b6000613bd78582860161360e565b925050602083013567ffffffffffffffff811115613bf457600080fd5b613c00858286016135e4565b9150509250929050565b60008060408385031215613c1d57600080fd5b6000613c2b8582860161360e565b9250506020613c3c8582860161360e565b9150509250929050565b6000613c52838361400b565b60208301905092915050565b613c6781614645565b82525050565b613c7e613c7982614645565b6147c3565b82525050565b6000613c8f8261458e565b613c9981856145bc565b9350613ca48361457e565b8060005b83811015613cd5578151613cbc8882613c46565b9750613cc7836145af565b925050600181019050613ca8565b5085935050505092915050565b613ceb81614657565b82525050565b613cfa81614663565b82525050565b6000613d0b82614599565b613d1581856145cd565b9350613d258185602086016146e4565b613d2e81614896565b840191505092915050565b6000613d44826145a4565b613d4e81856145de565b9350613d5e8185602086016146e4565b613d6781614896565b840191505092915050565b6000613d7f6034836145de565b9150613d8a826148c1565b604082019050919050565b6000613da2602f836145de565b9150613dad82614910565b604082019050919050565b6000613dc56028836145de565b9150613dd08261495f565b604082019050919050565b6000613de8602b836145de565b9150613df3826149ae565b604082019050919050565b6000613e0b6026836145de565b9150613e16826149fd565b604082019050919050565b6000613e2e6024836145de565b9150613e3982614a4c565b604082019050919050565b6000613e51602a836145de565b9150613e5c82614a9b565b604082019050919050565b6000613e746025836145de565b9150613e7f82614aea565b604082019050919050565b6000613e976023836145de565b9150613ea282614b39565b604082019050919050565b6000613eba602a836145de565b9150613ec582614b88565b604082019050919050565b6000613edd6020836145de565b9150613ee882614bd7565b602082019050919050565b6000613f006034836145de565b9150613f0b82614c00565b604082019050919050565b6000613f236029836145de565b9150613f2e82614c4f565b604082019050919050565b6000613f466029836145de565b9150613f5182614c9e565b604082019050919050565b6000613f69602a836145de565b9150613f7482614ced565b604082019050919050565b6000613f8c6028836145de565b9150613f9782614d3c565b604082019050919050565b6000613faf6021836145de565b9150613fba82614d8b565b604082019050919050565b6000613fd26025836145de565b9150613fdd82614dda565b604082019050919050565b6000613ff5602a836145de565b915061400082614e29565b604082019050919050565b614014816146cb565b82525050565b614023816146cb565b82525050565b60006140358284613c6d565b60148201915081905092915050565b60006020820190506140596000830184613c5e565b92915050565b600060a0820190506140746000830188613c5e565b6140816020830187613c5e565b81810360408301526140938186613c84565b905081810360608301526140a78185613c84565b905081810360808301526140bb8184613d00565b90509695505050505050565b600060a0820190506140dc6000830188613c5e565b6140e96020830187613c5e565b6140f6604083018661401a565b614103606083018561401a565b81810360808301526141158184613d00565b90509695505050505050565b60006040820190506141366000830185613c5e565b614143602083018461401a565b9392505050565b600060208201905081810360008301526141648184613c84565b905092915050565b600060408201905081810360008301526141868185613c84565b9050818103602083015261419a8184613c84565b90509392505050565b60006020820190506141b86000830184613ce2565b92915050565b60006020820190506141d36000830184613cf1565b92915050565b600060208201905081810360008301526141f38184613d39565b905092915050565b6000602082019050818103600083015261421481613d72565b9050919050565b6000602082019050818103600083015261423481613d95565b9050919050565b6000602082019050818103600083015261425481613db8565b9050919050565b6000602082019050818103600083015261427481613ddb565b9050919050565b6000602082019050818103600083015261429481613dfe565b9050919050565b600060208201905081810360008301526142b481613e21565b9050919050565b600060208201905081810360008301526142d481613e44565b9050919050565b600060208201905081810360008301526142f481613e67565b9050919050565b6000602082019050818103600083015261431481613e8a565b9050919050565b6000602082019050818103600083015261433481613ead565b9050919050565b6000602082019050818103600083015261435481613ed0565b9050919050565b6000602082019050818103600083015261437481613ef3565b9050919050565b6000602082019050818103600083015261439481613f16565b9050919050565b600060208201905081810360008301526143b481613f39565b9050919050565b600060208201905081810360008301526143d481613f5c565b9050919050565b600060208201905081810360008301526143f481613f7f565b9050919050565b6000602082019050818103600083015261441481613fa2565b9050919050565b6000602082019050818103600083015261443481613fc5565b9050919050565b6000602082019050818103600083015261445481613fe8565b9050919050565b6000602082019050614470600083018461401a565b92915050565b600060408201905061448b600083018561401a565b614498602083018461401a565b9392505050565b60006144a96144ba565b90506144b58282614749565b919050565b6000604051905090565b600067ffffffffffffffff8211156144df576144de614845565b5b602082029050602081019050919050565b600067ffffffffffffffff82111561450b5761450a614845565b5b602082029050602081019050919050565b600067ffffffffffffffff82111561453757614536614845565b5b61454082614896565b9050602081019050919050565b600067ffffffffffffffff82111561456857614567614845565b5b61457182614896565b9050602081019050919050565b6000819050602082019050919050565b600081519050919050565b600081519050919050565b600081519050919050565b6000602082019050919050565b600082825260208201905092915050565b600082825260208201905092915050565b600082825260208201905092915050565b60006145fa826146cb565b9150614605836146cb565b9250827fffffffffffffffffffffffffffffffffffffffffffffffffffffffffffffffff0382111561463a576146396147e7565b5b828201905092915050565b6000614650826146ab565b9050919050565b60008115159050919050565b6000819050919050565b60007fffffffff0000000000000000000000000000000000000000000000000000000082169050919050565b60006146a482614645565b9050919050565b600073ffffffffffffffffffffffffffffffffffffffff82169050919050565b6000819050919050565b82818337600083830152505050565b60005b838110156147025780820151818401526020810190506146e7565b83811115614711576000848401525b50505050565b6000600282049050600182168061472f57607f821691505b6020821081141561474357614742614816565b5b50919050565b61475282614896565b810181811067ffffffffffffffff8211171561477157614770614845565b5b80604052505050565b6000614785826146cb565b91507fffffffffffffffffffffffffffffffffffffffffffffffffffffffffffffffff8214156147b8576147b76147e7565b5b600182019050919050565b60006147ce826147d5565b9050919050565b60006147e0826148a7565b9050919050565b7f4e487b7100000000000000000000000000000000000000000000000000000000600052601160045260246000fd5b7f4e487b7100000000000000000000000000000000000000000000000000000000600052602260045260246000fd5b7f4e487b7100000000000000000000000000000000000000000000000000000000600052604160045260246000fd5b600060033d11156148935760046000803e6148906000516148b4565b90505b90565b6000601f19601f8301169050919050565b60008160601b9050919050565b60008160e01c9050919050565b7f455243313135353a207472616e7366657220746f206e6f6e204552433131353560008201527f526563656976657220696d706c656d656e746572000000000000000000000000602082015250565b7f455243313135353a2063616c6c6572206973206e6f7420746f6b656e206f776e60008201527f6572206e6f7220617070726f7665640000000000000000000000000000000000602082015250565b7f455243313135353a204552433131353552656365697665722072656a6563746560008201527f6420746f6b656e73000000000000000000000000000000000000000000000000602082015250565b7f41646472657373206e6f7420656c696769626c65202d20496e76616c6964206d60008201527f65726b6c652070726f6f66000000000000000000000000000000000000000000602082015250565b7f4f776e61626c653a206e6577206f776e657220697320746865207a65726f206160008201527f6464726573730000000000000000000000000000000000000000000000000000602082015250565b7f455243313135353a206275726e20616d6f756e7420657863656564732062616c60008201527f616e636500000000000000000000000000000000000000000000000000000000602082015250565b7f455243313135353a2061646472657373207a65726f206973206e6f742061207660008201527f616c6964206f776e657200000000000000000000000000000000000000000000602082015250565b7f455243313135353a207472616e7366657220746f20746865207a65726f20616460008201527f6472657373000000000000000000000000000000000000000000000000000000602082015250565b7f455243313135353a206275726e2066726f6d20746865207a65726f206164647260008201527f6573730000000000000000000000000000000000000000000000000000000000602082015250565b7f455243313135353a20696e73756666696369656e742062616c616e636520666f60008201527f72207472616e7366657200000000000000000000000000000000000000000000602082015250565b7f4f776e61626c653a2063616c6c6572206973206e6f7420746865206f776e6572600082015250565b7f4d61782035204c697465204e6f646520746f6b656e7320616c6c6f776564207060008201527f65722057686974656c6973742061646472657373000000000000000000000000602082015250565b7f455243313135353a2073657474696e6720617070726f76616c2073746174757360008201527f20666f722073656c660000000000000000000000000000000000000000000000602082015250565b7f455243313135353a206163636f756e747320616e6420696473206c656e67746860008201527f206d69736d617463680000000000000000000000000000000000000000000000602082015250565b7f507572636861736520776f756c6420657863656564206d6178204c697465204e60008201527f6f646520737570706c7900000000000000000000000000000000000000000000602082015250565b7f455243313135353a2069647320616e6420616d6f756e7473206c656e6774682060008201527f6d69736d61746368000000000000000000000000000000000000000000000000602082015250565b7f455243313135353a206d696e7420746f20746865207a65726f2061646472657360008201527f7300000000000000000000000000000000000000000000000000000000000000602082015250565b7f546f6b656e20616c726561647920636c61696d6564206279207468697320616460008201527f6472657373000000000000000000000000000000000000000000000000000000602082015250565b7f507572636861736520776f756c6420657863656564206d61782046756c6c204e60008201527f6f646520737570706c7900000000000000000000000000000000000000000000602082015250565b600060443d1015614e8857614f0b565b614e906144ba565b60043d036004823e80513d602482011167ffffffffffffffff82111715614eb8575050614f0b565b808201805167ffffffffffffffff811115614ed65750505050614f0b565b80602083010160043d038501811115614ef3575050505050614f0b565b614f0282602001850186614749565b82955050505050505b90565b614f1781614645565b8114614f2257600080fd5b50565b614f2e81614657565b8114614f3957600080fd5b50565b614f458161466d565b8114614f5057600080fd5b50565b614f5c81614699565b8114614f6757600080fd5b50565b614f73816146cb565b8114614f7e57600080fd5b5056fea2646970667358221220a831c49fa94b0938ff151c01ff150f382308a8ba0055850919f4bfc5f6e3630b64736f6c63430008040033",
  "linkReferences": {},
  "deployedLinkReferences": {}
}