{
  "_format": "hh-sol-artifact-1",
  "contractName": "SafuuX",
  "sourceName": "contracts/SafuuX.sol",
  "abi": [
    {
      "inputs": [
        {
          "internalType": "string",
          "name": "name_",
          "type": "string"
        },
        {
          "internalType": "string",
          "name": "symbol_",
          "type": "string"
        },
        {
          "internalType": "address",
          "name": "safuuTokenAddress_",
          "type": "address"
        },
        {
          "internalType": "bytes32",
          "name": "goldListMerkleRoot_",
          "type": "bytes32"
        },
        {
          "internalType": "bytes32",
          "name": "whiteListMerkleRoot_",
          "type": "bytes32"
        },
        {
          "internalType": "string",
          "name": "merkleTreeInputURI_",
          "type": "string"
        }
      ],
      "stateMutability": "nonpayable",
      "type": "constructor"
    },
    {
      "anonymous": false,
      "inputs": [
        {
          "indexed": true,
          "internalType": "address",
          "name": "account",
          "type": "address"
        },
        {
          "indexed": true,
          "internalType": "address",
          "name": "operator",
          "type": "address"
        },
        {
          "indexed": false,
          "internalType": "bool",
          "name": "approved",
          "type": "bool"
        }
      ],
      "name": "ApprovalForAll",
      "type": "event"
    },
    {
      "anonymous": false,
      "inputs": [
        {
          "indexed": true,
          "internalType": "address",
          "name": "previousOwner",
          "type": "address"
        },
        {
          "indexed": true,
          "internalType": "address",
          "name": "newOwner",
          "type": "address"
        }
      ],
      "name": "OwnershipTransferred",
      "type": "event"
    },
    {
      "anonymous": false,
      "inputs": [
        {
          "indexed": true,
          "internalType": "address",
          "name": "operator",
          "type": "address"
        },
        {
          "indexed": true,
          "internalType": "address",
          "name": "from",
          "type": "address"
        },
        {
          "indexed": true,
          "internalType": "address",
          "name": "to",
          "type": "address"
        },
        {
          "indexed": false,
          "internalType": "uint256[]",
          "name": "ids",
          "type": "uint256[]"
        },
        {
          "indexed": false,
          "internalType": "uint256[]",
          "name": "values",
          "type": "uint256[]"
        }
      ],
      "name": "TransferBatch",
      "type": "event"
    },
    {
      "anonymous": false,
      "inputs": [
        {
          "indexed": true,
          "internalType": "address",
          "name": "operator",
          "type": "address"
        },
        {
          "indexed": true,
          "internalType": "address",
          "name": "from",
          "type": "address"
        },
        {
          "indexed": true,
          "internalType": "address",
          "name": "to",
          "type": "address"
        },
        {
          "indexed": false,
          "internalType": "uint256",
          "name": "id",
          "type": "uint256"
        },
        {
          "indexed": false,
          "internalType": "uint256",
          "name": "value",
          "type": "uint256"
        }
      ],
      "name": "TransferSingle",
      "type": "event"
    },
    {
      "anonymous": false,
      "inputs": [
        {
          "indexed": false,
          "internalType": "string",
          "name": "value",
          "type": "string"
        },
        {
          "indexed": true,
          "internalType": "uint256",
          "name": "id",
          "type": "uint256"
        }
      ],
      "name": "URI",
      "type": "event"
    },
    {
      "inputs": [],
      "name": "FULL_NODE_COST",
      "outputs": [
        {
          "internalType": "uint256",
          "name": "",
          "type": "uint256"
        }
      ],
      "stateMutability": "view",
      "type": "function"
    },
    {
      "inputs": [],
      "name": "FULL_NODE_CURRENT_SUPPLY",
      "outputs": [
        {
          "internalType": "uint256",
          "name": "",
          "type": "uint256"
        }
      ],
      "stateMutability": "view",
      "type": "function"
    },
    {
      "inputs": [],
      "name": "FULL_NODE_LIMIT",
      "outputs": [
        {
          "internalType": "uint256",
          "name": "",
          "type": "uint256"
        }
      ],
      "stateMutability": "view",
      "type": "function"
    },
    {
      "inputs": [],
      "name": "LITE_NODE_COST",
      "outputs": [
        {
          "internalType": "uint256",
          "name": "",
          "type": "uint256"
        }
      ],
      "stateMutability": "view",
      "type": "function"
    },
    {
      "inputs": [],
      "name": "LITE_NODE_CURRENT_SUPPLY",
      "outputs": [
        {
          "internalType": "uint256",
          "name": "",
          "type": "uint256"
        }
      ],
      "stateMutability": "view",
      "type": "function"
    },
    {
      "inputs": [],
      "name": "LITE_NODE_LIMIT",
      "outputs": [
        {
          "internalType": "uint256",
          "name": "",
          "type": "uint256"
        }
      ],
      "stateMutability": "view",
      "type": "function"
    },
    {
      "inputs": [],
      "name": "RESERVED_FULL_NODES",
      "outputs": [
        {
          "internalType": "uint256",
          "name": "",
          "type": "uint256"
        }
      ],
      "stateMutability": "view",
      "type": "function"
    },
    {
      "inputs": [],
      "name": "_goldListMerkleRoot",
      "outputs": [
        {
          "internalType": "bytes32",
          "name": "",
          "type": "bytes32"
        }
      ],
      "stateMutability": "view",
      "type": "function"
    },
    {
      "inputs": [],
      "name": "_isGoldListSaleActive",
      "outputs": [
        {
          "internalType": "bool",
          "name": "",
          "type": "bool"
        }
      ],
      "stateMutability": "view",
      "type": "function"
    },
    {
      "inputs": [],
      "name": "_isWhiteListSaleActive",
      "outputs": [
        {
          "internalType": "bool",
          "name": "",
          "type": "bool"
        }
      ],
      "stateMutability": "view",
      "type": "function"
    },
    {
      "inputs": [],
      "name": "_merkleTreeInputURI",
      "outputs": [
        {
          "internalType": "string",
          "name": "",
          "type": "string"
        }
      ],
      "stateMutability": "view",
      "type": "function"
    },
    {
      "inputs": [],
      "name": "_name",
      "outputs": [
        {
          "internalType": "string",
          "name": "",
          "type": "string"
        }
      ],
      "stateMutability": "view",
      "type": "function"
    },
    {
      "inputs": [],
      "name": "_safuuTokenAddress",
      "outputs": [
        {
          "internalType": "address",
          "name": "",
          "type": "address"
        }
      ],
      "stateMutability": "view",
      "type": "function"
    },
    {
      "inputs": [],
      "name": "_symbol",
      "outputs": [
        {
          "internalType": "string",
          "name": "",
          "type": "string"
        }
      ],
      "stateMutability": "view",
      "type": "function"
    },
    {
      "inputs": [],
      "name": "_whiteListMerkleRoot",
      "outputs": [
        {
          "internalType": "bytes32",
          "name": "",
          "type": "bytes32"
        }
      ],
      "stateMutability": "view",
      "type": "function"
    },
    {
      "inputs": [
        {
          "internalType": "address",
          "name": "account",
          "type": "address"
        },
        {
          "internalType": "uint256",
          "name": "id",
          "type": "uint256"
        }
      ],
      "name": "balanceOf",
      "outputs": [
        {
          "internalType": "uint256",
          "name": "",
          "type": "uint256"
        }
      ],
      "stateMutability": "view",
      "type": "function"
    },
    {
      "inputs": [
        {
          "internalType": "address[]",
          "name": "accounts",
          "type": "address[]"
        },
        {
          "internalType": "uint256[]",
          "name": "ids",
          "type": "uint256[]"
        }
      ],
      "name": "balanceOfBatch",
      "outputs": [
        {
          "internalType": "uint256[]",
          "name": "",
          "type": "uint256[]"
        }
      ],
      "stateMutability": "view",
      "type": "function"
    },
    {
      "inputs": [
        {
          "internalType": "uint256",
          "name": "_id",
          "type": "uint256"
        },
        {
          "internalType": "uint256",
          "name": "_amount",
          "type": "uint256"
        }
      ],
      "name": "burn",
      "outputs": [],
      "stateMutability": "nonpayable",
      "type": "function"
    },
    {
      "inputs": [
        {
          "internalType": "uint256[]",
          "name": "_ids",
          "type": "uint256[]"
        },
        {
          "internalType": "uint256[]",
          "name": "_amounts",
          "type": "uint256[]"
        }
      ],
      "name": "burnBatch",
      "outputs": [],
      "stateMutability": "nonpayable",
      "type": "function"
    },
    {
      "inputs": [
        {
          "internalType": "address",
          "name": "_from",
          "type": "address"
        },
        {
          "internalType": "uint256[]",
          "name": "_burnIds",
          "type": "uint256[]"
        },
        {
          "internalType": "uint256[]",
          "name": "_burnAmounts",
          "type": "uint256[]"
        },
        {
          "internalType": "uint256[]",
          "name": "_mintIds",
          "type": "uint256[]"
        },
        {
          "internalType": "uint256[]",
          "name": "_mintAmounts",
          "type": "uint256[]"
        }
      ],
      "name": "burnForMint",
      "outputs": [],
      "stateMutability": "nonpayable",
      "type": "function"
    },
    {
      "inputs": [
        {
          "internalType": "address",
          "name": "walletAddress",
          "type": "address"
        },
        {
          "internalType": "bytes32[]",
          "name": "merkleProof",
          "type": "bytes32[]"
        }
      ],
      "name": "checkGoldListEligibility",
      "outputs": [
        {
          "internalType": "bool",
          "name": "",
          "type": "bool"
        }
      ],
      "stateMutability": "view",
      "type": "function"
    },
    {
      "inputs": [
        {
          "internalType": "address",
          "name": "walletAddress",
          "type": "address"
        },
        {
          "internalType": "bytes32[]",
          "name": "merkleProof",
          "type": "bytes32[]"
        }
      ],
      "name": "checkWhiteListEligibility",
      "outputs": [
        {
          "internalType": "bool",
          "name": "",
          "type": "bool"
        }
      ],
      "stateMutability": "view",
      "type": "function"
    },
    {
      "inputs": [],
      "name": "getMerkleTreeInputURI",
      "outputs": [
        {
          "internalType": "string",
          "name": "",
          "type": "string"
        }
      ],
      "stateMutability": "view",
      "type": "function"
    },
    {
      "inputs": [
        {
          "internalType": "address",
          "name": "account",
          "type": "address"
        },
        {
          "internalType": "address",
          "name": "operator",
          "type": "address"
        }
      ],
      "name": "isApprovedForAll",
      "outputs": [
        {
          "internalType": "bool",
          "name": "",
          "type": "bool"
        }
      ],
      "stateMutability": "view",
      "type": "function"
    },
    {
      "inputs": [
        {
          "internalType": "uint256",
          "name": "id",
          "type": "uint256"
        },
        {
          "internalType": "uint256",
          "name": "count",
          "type": "uint256"
        }
      ],
      "name": "mint",
      "outputs": [],
      "stateMutability": "nonpayable",
      "type": "function"
    },
    {
      "inputs": [
        {
          "internalType": "uint256",
          "name": "_fullNodeCount",
          "type": "uint256"
        },
        {
          "internalType": "uint256",
          "name": "_liteNodeCount",
          "type": "uint256"
        },
        {
          "internalType": "bytes32[]",
          "name": "merkleProof",
          "type": "bytes32[]"
        }
      ],
      "name": "mintGoldList",
      "outputs": [],
      "stateMutability": "nonpayable",
      "type": "function"
    },
    {
      "inputs": [
        {
          "internalType": "uint256",
          "name": "_fullNodeCount",
          "type": "uint256"
        },
        {
          "internalType": "uint256",
          "name": "_liteNodeCount",
          "type": "uint256"
        },
        {
          "internalType": "bytes32[]",
          "name": "merkleProof",
          "type": "bytes32[]"
        }
      ],
      "name": "mintWhiteList",
      "outputs": [],
      "stateMutability": "nonpayable",
      "type": "function"
    },
    {
      "inputs": [],
      "name": "name",
      "outputs": [
        {
          "internalType": "string",
          "name": "",
          "type": "string"
        }
      ],
      "stateMutability": "view",
      "type": "function"
    },
    {
      "inputs": [
        {
          "internalType": "address",
          "name": "",
          "type": "address"
        }
      ],
      "name": "nodesClaimed",
      "outputs": [
        {
          "internalType": "bool",
          "name": "",
          "type": "bool"
        }
      ],
      "stateMutability": "view",
      "type": "function"
    },
    {
      "inputs": [],
      "name": "owner",
      "outputs": [
        {
          "internalType": "address",
          "name": "",
          "type": "address"
        }
      ],
      "stateMutability": "view",
      "type": "function"
    },
    {
      "inputs": [],
      "name": "renounceOwnership",
      "outputs": [],
      "stateMutability": "nonpayable",
      "type": "function"
    },
    {
      "inputs": [
        {
          "internalType": "address",
          "name": "from",
          "type": "address"
        },
        {
          "internalType": "address",
          "name": "to",
          "type": "address"
        },
        {
          "internalType": "uint256[]",
          "name": "ids",
          "type": "uint256[]"
        },
        {
          "internalType": "uint256[]",
          "name": "amounts",
          "type": "uint256[]"
        },
        {
          "internalType": "bytes",
          "name": "data",
          "type": "bytes"
        }
      ],
      "name": "safeBatchTransferFrom",
      "outputs": [],
      "stateMutability": "nonpayable",
      "type": "function"
    },
    {
      "inputs": [
        {
          "internalType": "address",
          "name": "from",
          "type": "address"
        },
        {
          "internalType": "address",
          "name": "to",
          "type": "address"
        },
        {
          "internalType": "uint256",
          "name": "id",
          "type": "uint256"
        },
        {
          "internalType": "uint256",
          "name": "amount",
          "type": "uint256"
        },
        {
          "internalType": "bytes",
          "name": "data",
          "type": "bytes"
        }
      ],
      "name": "safeTransferFrom",
      "outputs": [],
      "stateMutability": "nonpayable",
      "type": "function"
    },
    {
      "inputs": [
        {
          "internalType": "address",
          "name": "operator",
          "type": "address"
        },
        {
          "internalType": "bool",
          "name": "approved",
          "type": "bool"
        }
      ],
      "name": "setApprovalForAll",
      "outputs": [],
      "stateMutability": "nonpayable",
      "type": "function"
    },
    {
      "inputs": [
        {
          "internalType": "uint256",
          "name": "cost",
          "type": "uint256"
        }
      ],
      "name": "setFullNodeCost",
      "outputs": [],
      "stateMutability": "nonpayable",
      "type": "function"
    },
    {
      "inputs": [
        {
          "internalType": "bool",
          "name": "_isActive",
          "type": "bool"
        }
      ],
      "name": "setGoldListSaleStatus",
      "outputs": [],
      "stateMutability": "nonpayable",
      "type": "function"
    },
    {
      "inputs": [
        {
          "internalType": "uint256",
          "name": "cost",
          "type": "uint256"
        }
      ],
      "name": "setLiteNodeCost",
      "outputs": [],
      "stateMutability": "nonpayable",
      "type": "function"
    },
    {
      "inputs": [
        {
          "internalType": "uint256",
          "name": "_id",
          "type": "uint256"
        },
        {
          "internalType": "string",
          "name": "_uri",
          "type": "string"
        }
      ],
      "name": "setURI",
      "outputs": [],
      "stateMutability": "nonpayable",
      "type": "function"
    },
    {
      "inputs": [
        {
          "internalType": "bool",
          "name": "_isActive",
          "type": "bool"
        }
      ],
      "name": "setWhiteListSaleStatus",
      "outputs": [],
      "stateMutability": "nonpayable",
      "type": "function"
    },
    {
      "inputs": [
        {
          "internalType": "bytes4",
          "name": "interfaceId",
          "type": "bytes4"
        }
      ],
      "name": "supportsInterface",
      "outputs": [
        {
          "internalType": "bool",
          "name": "",
          "type": "bool"
        }
      ],
      "stateMutability": "view",
      "type": "function"
    },
    {
      "inputs": [],
      "name": "symbol",
      "outputs": [
        {
          "internalType": "string",
          "name": "",
          "type": "string"
        }
      ],
      "stateMutability": "view",
      "type": "function"
    },
    {
      "inputs": [
        {
          "internalType": "uint256",
          "name": "",
          "type": "uint256"
        }
      ],
      "name": "tokenURI",
      "outputs": [
        {
          "internalType": "string",
          "name": "",
          "type": "string"
        }
      ],
      "stateMutability": "view",
      "type": "function"
    },
    {
      "inputs": [
        {
          "internalType": "address",
          "name": "newOwner",
          "type": "address"
        }
      ],
      "name": "transferOwnership",
      "outputs": [],
      "stateMutability": "nonpayable",
      "type": "function"
    },
    {
      "inputs": [
        {
          "internalType": "uint256",
          "name": "_id",
          "type": "uint256"
        }
      ],
      "name": "uri",
      "outputs": [
        {
          "internalType": "string",
          "name": "",
          "type": "string"
        }
      ],
      "stateMutability": "view",
      "type": "function"
    },
    {
      "inputs": [],
      "name": "withdrawFunds",
      "outputs": [],
      "stateMutability": "nonpayable",
      "type": "function"
    },
    {
      "inputs": [
        {
          "internalType": "contract IERC20",
          "name": "tokenContract",
          "type": "address"
        },
        {
          "internalType": "address",
          "name": "to",
          "type": "address"
        }
      ],
      "name": "withdrawTokens",
      "outputs": [],
      "stateMutability": "nonpayable",
      "type": "function"
    }
  ],
  "bytecode": "0x60c06040526000600760006101000a81548160ff0219169083151502179055506000600760016101000a81548160ff02191690831515021790555060326008556101f46009556101f4600a556105dc600b556014600c553480156200006357600080fd5b5060405162006126380380620061268339818101604052810190620000899190620003b5565b60405180602001604052806000815250620000aa816200017b60201b60201c565b50620000cb620000bf6200019760201b60201c565b6200019f60201b60201c565b8560049080519060200190620000e392919062000265565b508460059080519060200190620000fc92919062000265565b5083600760026101000a81548173ffffffffffffffffffffffffffffffffffffffff021916908373ffffffffffffffffffffffffffffffffffffffff16021790555080600690805190602001906200015692919062000265565b5082608081815250508160a081815250506005600d8190555050505050505062000678565b80600290805190602001906200019392919062000265565b5050565b600033905090565b6000600360009054906101000a900473ffffffffffffffffffffffffffffffffffffffff16905081600360006101000a81548173ffffffffffffffffffffffffffffffffffffffff021916908373ffffffffffffffffffffffffffffffffffffffff1602179055508173ffffffffffffffffffffffffffffffffffffffff168173ffffffffffffffffffffffffffffffffffffffff167f8be0079c531659141344cd1fd0a4f28419497f9722a3daafe3b4186f6b6457e060405160405180910390a35050565b828054620002739062000569565b90600052602060002090601f016020900481019282620002975760008555620002e3565b82601f10620002b257805160ff1916838001178555620002e3565b82800160010185558215620002e3579182015b82811115620002e2578251825591602001919060010190620002c5565b5b509050620002f29190620002f6565b5090565b5b8082111562000311576000816000905550600101620002f7565b5090565b60006200032c6200032684620004bf565b62000496565b9050828152602081018484840111156200034557600080fd5b6200035284828562000533565b509392505050565b6000815190506200036b8162000644565b92915050565b60008151905062000382816200065e565b92915050565b600082601f8301126200039a57600080fd5b8151620003ac84826020860162000315565b91505092915050565b60008060008060008060c08789031215620003cf57600080fd5b600087015167ffffffffffffffff811115620003ea57600080fd5b620003f889828a0162000388565b965050602087015167ffffffffffffffff8111156200041657600080fd5b6200042489828a0162000388565b95505060406200043789828a016200035a565b94505060606200044a89828a0162000371565b93505060806200045d89828a0162000371565b92505060a087015167ffffffffffffffff8111156200047b57600080fd5b6200048989828a0162000388565b9150509295509295509295565b6000620004a2620004b5565b9050620004b082826200059f565b919050565b6000604051905090565b600067ffffffffffffffff821115620004dd57620004dc62000604565b5b620004e88262000633565b9050602081019050919050565b6000620005028262000513565b9050919050565b6000819050919050565b600073ffffffffffffffffffffffffffffffffffffffff82169050919050565b60005b838110156200055357808201518184015260208101905062000536565b8381111562000563576000848401525b50505050565b600060028204905060018216806200058257607f821691505b60208210811415620005995762000598620005d5565b5b50919050565b620005aa8262000633565b810181811067ffffffffffffffff82111715620005cc57620005cb62000604565b5b80604052505050565b7f4e487b7100000000000000000000000000000000000000000000000000000000600052602260045260246000fd5b7f4e487b7100000000000000000000000000000000000000000000000000000000600052604160045260246000fd5b6000601f19601f8301169050919050565b6200064f81620004f5565b81146200065b57600080fd5b50565b620006698162000509565b81146200067557600080fd5b50565b60805160a051615a5e620006c8600039600081816109f901528181610c08015281816116b801526116ee015260008181611262015281816114aa015281816114e0015261174e0152615a5e6000f3fe608060405234801561001057600080fd5b50600436106102895760003560e01c80639f4e86121161015c578063d28d8852116100ce578063ec75c2ec11610087578063ec75c2ec1461079e578063f11207d8146107ba578063f242432a146107d8578063f2fde38b146107f4578063f48ef7b314610810578063ff9204fc1461082e57610289565b8063d28d8852146106cc578063d55690cc146106ea578063de9c4dc814610706578063df714a2314610722578063e0d0b1b014610752578063e985e9c51461076e57610289565b8063b286d84611610120578063b286d846146105f8578063b390c0ab14610628578063b39d80cb14610644578063c3c1e8ff14610662578063c87b56dd14610680578063cd8f19a1146106b057610289565b80639f4e861214610566578063a22cb46514610584578063a522ad25146105a0578063aacffcd1146105bc578063b09f1266146105da57610289565b80632fa5b0cb11610200578063715018a6116101b9578063715018a6146104cc57806383ca4b6f146104d6578063862440e2146104f25780638da5cb5b1461050e5780638edeb5281461052c57806395d89b411461054857610289565b80632fa5b0cb1461040857806330b9ff72146104265780633ea51491146104445780634e1273f414610462578063510f4104146104925780635ce92989146104ae57610289565b80631689519011610252578063168951901461035a5780631b2ef1ca1461037857806324600fc3146103945780632482751c1461039e5780632ab5a443146103ce5780632eb2c2d6146103ec57610289565b8062fdd58e1461028e57806301ffc9a7146102be578063041fa44e146102ee57806306fdde031461030c5780630e89341c1461032a575b600080fd5b6102a860048036038101906102a39190614144565b61084c565b6040516102b59190614dde565b60405180910390f35b6102d860048036038101906102d391906142aa565b610915565b6040516102e59190614aa6565b60405180910390f35b6102f66109f7565b6040516103039190614ac1565b60405180910390f35b610314610a1b565b6040516103219190614adc565b60405180910390f35b610344600480360381019061033f9190614338565b610aad565b6040516103519190614adc565b60405180910390f35b610362610b52565b60405161036f9190614aa6565b60405180910390f35b610392600480360381019061038d91906143de565b610b65565b005b61039c610b84565b005b6103b860048036038101906103b39190613fd9565b610bd5565b6040516103c59190614aa6565b60405180910390f35b6103d6610c3d565b6040516103e39190614dde565b60405180910390f35b61040660048036038101906104019190613e8b565b610c43565b005b610410610ce4565b60405161041d9190614dde565b60405180910390f35b61042e610cea565b60405161043b9190614dde565b60405180910390f35b61044c610cf0565b6040516104599190614dde565b60405180910390f35b61047c60048036038101906104779190614180565b610cf6565b6040516104899190614a4d565b60405180910390f35b6104ac60048036038101906104a79190614031565b610ea7565b005b6104b6610edc565b6040516104c39190614dde565b60405180910390f35b6104d4610ee2565b005b6104f060048036038101906104eb91906141ec565b610ef6565b005b61050c6004803603810190610507919061438a565b610f05565b005b610516610f71565b6040516105239190614910565b60405180910390f35b61054660048036038101906105419190614338565b610f9b565b005b610550610fad565b60405161055d9190614adc565b60405180910390f35b61056e61103f565b60405161057b9190614910565b60405180910390f35b61059e60048036038101906105999190614108565b611065565b005b6105ba60048036038101906105b591906142fc565b61107b565b005b6105c461119d565b6040516105d19190614dde565b60405180910390f35b6105e26111a3565b6040516105ef9190614adc565b60405180910390f35b610612600480360381019061060d9190613e26565b611231565b60405161061f9190614aa6565b60405180910390f35b610642600480360381019061063d91906143de565b611251565b005b61064c611260565b6040516106599190614ac1565b60405180910390f35b61066a611284565b6040516106779190614adc565b60405180910390f35b61069a60048036038101906106959190614338565b611312565b6040516106a79190614adc565b60405180910390f35b6106ca60048036038101906106c5919061441a565b6113b2565b005b6106d461150d565b6040516106e19190614adc565b60405180910390f35b61070460048036038101906106ff9190614258565b61159b565b005b610720600480360381019061071b919061441a565b6115c0565b005b61073c60048036038101906107379190613fd9565b61171b565b6040516107499190614aa6565b60405180910390f35b61076c60048036038101906107679190614338565b611783565b005b61078860048036038101906107839190613e4f565b611795565b6040516107959190614aa6565b60405180910390f35b6107b860048036038101906107b39190614258565b611829565b005b6107c261184e565b6040516107cf9190614aa6565b60405180910390f35b6107f260048036038101906107ed9190613f4a565b611861565b005b61080e60048036038101906108099190613e26565b611902565b005b610818611986565b6040516108259190614dde565b60405180910390f35b61083661198c565b6040516108439190614adc565b60405180910390f35b60008073ffffffffffffffffffffffffffffffffffffffff168373ffffffffffffffffffffffffffffffffffffffff1614156108bd576040517f08c379a00000000000000000000000000000000000000000000000000000000081526004016108b490614bde565b60405180910390fd5b60008083815260200190815260200160002060008473ffffffffffffffffffffffffffffffffffffffff1673ffffffffffffffffffffffffffffffffffffffff16815260200190815260200160002054905092915050565b60007fd9b67a26000000000000000000000000000000000000000000000000000000007bffffffffffffffffffffffffffffffffffffffffffffffffffffffff1916827bffffffffffffffffffffffffffffffffffffffffffffffffffffffff191614806109e057507f0e89341c000000000000000000000000000000000000000000000000000000007bffffffffffffffffffffffffffffffffffffffffffffffffffffffff1916827bffffffffffffffffffffffffffffffffffffffffffffffffffffffff1916145b806109f057506109ef82611a1e565b5b9050919050565b7f000000000000000000000000000000000000000000000000000000000000000081565b606060048054610a2a906150f4565b80601f0160208091040260200160405190810160405280929190818152602001828054610a56906150f4565b8015610aa35780601f10610a7857610100808354040283529160200191610aa3565b820191906000526020600020905b815481529060010190602001808311610a8657829003601f168201915b5050505050905090565b6060600f60008381526020019081526020016000208054610acd906150f4565b80601f0160208091040260200160405190810160405280929190818152602001828054610af9906150f4565b8015610b465780601f10610b1b57610100808354040283529160200191610b46565b820191906000526020600020905b815481529060010190602001808311610b2957829003601f168201915b50505050509050919050565b600760009054906101000a900460ff1681565b610b8033838360405180602001604052806000815250611a88565b5050565b610b8c611c39565b3373ffffffffffffffffffffffffffffffffffffffff166108fc479081150290604051600060405180830381858888f19350505050158015610bd2573d6000803e3d6000fd5b50565b60008084604051602001610be991906148f5565b6040516020818303038152906040528051906020012090506000610c2f7f0000000000000000000000000000000000000000000000000000000000000000868685611cb7565b905080925050509392505050565b600c5481565b610c4b611d0f565b73ffffffffffffffffffffffffffffffffffffffff168573ffffffffffffffffffffffffffffffffffffffff161480610c915750610c9085610c8b611d0f565b611795565b5b610cd0576040517f08c379a0000000000000000000000000000000000000000000000000000000008152600401610cc790614b1e565b60405180910390fd5b610cdd8585858585611d17565b5050505050565b600b5481565b600a5481565b60085481565b60608151835114610d3c576040517f08c379a0000000000000000000000000000000000000000000000000000000008152600401610d3390614d3e565b60405180910390fd5b6000835167ffffffffffffffff811115610d7f577f4e487b7100000000000000000000000000000000000000000000000000000000600052604160045260246000fd5b604051908082528060200260200182016040528015610dad5781602001602082028036833780820191505090505b50905060005b8451811015610e9c57610e46858281518110610df8577f4e487b7100000000000000000000000000000000000000000000000000000000600052603260045260246000fd5b6020026020010151858381518110610e39577f4e487b7100000000000000000000000000000000000000000000000000000000600052603260045260246000fd5b602002602001015161084c565b828281518110610e7f577f4e487b7100000000000000000000000000000000000000000000000000000000600052603260045260246000fd5b60200260200101818152505080610e9590615157565b9050610db3565b508091505092915050565b610eaf611c39565b610eba858585612085565b610ed5858383604051806020016040528060008152506123a0565b5050505050565b600e5481565b610eea611c39565b610ef46000612619565b565b610f01338383612085565b5050565b610f0d611c39565b80600f60008481526020019081526020016000209080519060200190610f34929190613a95565b50817f6bb7ff708619ba0610cba295a58592e0451dee2622938c8755667688daf3529b82604051610f659190614adc565b60405180910390a25050565b6000600360009054906101000a900473ffffffffffffffffffffffffffffffffffffffff16905090565b610fa3611c39565b8060098190555050565b606060058054610fbc906150f4565b80601f0160208091040260200160405190810160405280929190818152602001828054610fe8906150f4565b80156110355780601f1061100a57610100808354040283529160200191611035565b820191906000526020600020905b81548152906001019060200180831161101857829003601f168201915b5050505050905090565b600760029054906101000a900473ffffffffffffffffffffffffffffffffffffffff1681565b611077611070611d0f565b83836126df565b5050565b611083611c39565b8173ffffffffffffffffffffffffffffffffffffffff1663a9059cbb828473ffffffffffffffffffffffffffffffffffffffff166370a08231306040518263ffffffff1660e01b81526004016110d99190614910565b60206040518083038186803b1580156110f157600080fd5b505afa158015611105573d6000803e3d6000fd5b505050506040513d601f19601f820116820180604052508101906111299190614361565b6040518363ffffffff1660e01b8152600401611146929190614a24565b602060405180830381600087803b15801561116057600080fd5b505af1158015611174573d6000803e3d6000fd5b505050506040513d601f19601f820116820180604052508101906111989190614281565b505050565b60095481565b600580546111b0906150f4565b80601f01602080910402602001604051908101604052809291908181526020018280546111dc906150f4565b80156112295780601f106111fe57610100808354040283529160200191611229565b820191906000526020600020905b81548152906001019060200180831161120c57829003601f168201915b505050505081565b60106020528060005260406000206000915054906101000a900460ff1681565b61125c33838361284c565b5050565b7f000000000000000000000000000000000000000000000000000000000000000081565b60068054611291906150f4565b80601f01602080910402602001604051908101604052809291908181526020018280546112bd906150f4565b801561130a5780601f106112df5761010080835404028352916020019161130a565b820191906000526020600020905b8154815290600101906020018083116112ed57829003601f168201915b505050505081565b600f6020528060005260406000206000915090508054611331906150f4565b80601f016020809104026020016040519081016040528092919081815260200182805461135d906150f4565b80156113aa5780601f1061137f576101008083540402835291602001916113aa565b820191906000526020600020905b81548152906001019060200180831161138d57829003601f168201915b505050505081565b60011515600760009054906101000a900460ff16151514611408576040517f08c379a00000000000000000000000000000000000000000000000000000000081526004016113ff90614b5e565b60405180910390fd5b60001515601060003373ffffffffffffffffffffffffffffffffffffffff1673ffffffffffffffffffffffffffffffffffffffff16815260200190815260200160002060009054906101000a900460ff1615151461149b576040517f08c379a000000000000000000000000000000000000000000000000000000000815260040161149290614c1e565b60405180910390fd5b60008411156114d1576114d0847f00000000000000000000000000000000000000000000000000000000000000008484612a93565b5b600083111561150757611506837f00000000000000000000000000000000000000000000000000000000000000008484612e24565b5b50505050565b6004805461151a906150f4565b80601f0160208091040260200160405190810160405280929190818152602001828054611546906150f4565b80156115935780601f1061156857610100808354040283529160200191611593565b820191906000526020600020905b81548152906001019060200180831161157657829003601f168201915b505050505081565b6115a3611c39565b80600760016101000a81548160ff02191690831515021790555050565b60011515600760019054906101000a900460ff16151514611616576040517f08c379a000000000000000000000000000000000000000000000000000000000815260040161160d90614cde565b60405180910390fd5b60001515601060003373ffffffffffffffffffffffffffffffffffffffff1673ffffffffffffffffffffffffffffffffffffffff16815260200190815260200160002060009054906101000a900460ff161515146116a9576040517f08c379a00000000000000000000000000000000000000000000000000000000081526004016116a090614c1e565b60405180910390fd5b60008411156116df576116de847f00000000000000000000000000000000000000000000000000000000000000008484612a93565b5b600083111561171557611714837f00000000000000000000000000000000000000000000000000000000000000008484612e24565b5b50505050565b6000808460405160200161172f91906148f5565b60405160208183030381529060405280519060200120905060006117757f0000000000000000000000000000000000000000000000000000000000000000868685611cb7565b905080925050509392505050565b61178b611c39565b8060088190555050565b6000600160008473ffffffffffffffffffffffffffffffffffffffff1673ffffffffffffffffffffffffffffffffffffffff16815260200190815260200160002060008373ffffffffffffffffffffffffffffffffffffffff1673ffffffffffffffffffffffffffffffffffffffff16815260200190815260200160002060009054906101000a900460ff16905092915050565b611831611c39565b80600760006101000a81548160ff02191690831515021790555050565b600760019054906101000a900460ff1681565b611869611d0f565b73ffffffffffffffffffffffffffffffffffffffff168573ffffffffffffffffffffffffffffffffffffffff1614806118af57506118ae856118a9611d0f565b611795565b5b6118ee576040517f08c379a00000000000000000000000000000000000000000000000000000000081526004016118e590614b1e565b60405180910390fd5b6118fb858585858561325d565b5050505050565b61190a611c39565b600073ffffffffffffffffffffffffffffffffffffffff168173ffffffffffffffffffffffffffffffffffffffff16141561197a576040517f08c379a000000000000000000000000000000000000000000000000000000000815260040161197190614b9e565b60405180910390fd5b61198381612619565b50565b600d5481565b60606006805461199b906150f4565b80601f01602080910402602001604051908101604052809291908181526020018280546119c7906150f4565b8015611a145780601f106119e957610100808354040283529160200191611a14565b820191906000526020600020905b8154815290600101906020018083116119f757829003601f168201915b5050505050905090565b60007f01ffc9a7000000000000000000000000000000000000000000000000000000007bffffffffffffffffffffffffffffffffffffffffffffffffffffffff1916827bffffffffffffffffffffffffffffffffffffffffffffffffffffffff1916149050919050565b600073ffffffffffffffffffffffffffffffffffffffff168473ffffffffffffffffffffffffffffffffffffffff161415611af8576040517f08c379a0000000000000000000000000000000000000000000000000000000008152600401611aef90614d9e565b60405180910390fd5b6000611b02611d0f565b90506000611b0f856134f9565b90506000611b1c856134f9565b9050611b2d836000898585896135bf565b8460008088815260200190815260200160002060008973ffffffffffffffffffffffffffffffffffffffff1673ffffffffffffffffffffffffffffffffffffffff1681526020019081526020016000206000828254611b8c9190614f72565b925050819055508673ffffffffffffffffffffffffffffffffffffffff16600073ffffffffffffffffffffffffffffffffffffffff168473ffffffffffffffffffffffffffffffffffffffff167fc3d58168c5ae7397731d063d5bbf3d657854427343f4c083240f7aacaa2d0f628989604051611c0a929190614df9565b60405180910390a4611c21836000898585896135c7565b611c30836000898989896135cf565b50505050505050565b611c41611d0f565b73ffffffffffffffffffffffffffffffffffffffff16611c5f610f71565b73ffffffffffffffffffffffffffffffffffffffff1614611cb5576040517f08c379a0000000000000000000000000000000000000000000000000000000008152600401611cac90614c9e565b60405180910390fd5b565b6000611d05848480806020026020016040519081016040528093929190818152602001838360200280828437600081840152601f19601f8201169050808301925050505050505086846137b6565b9050949350505050565b600033905090565b8151835114611d5b576040517f08c379a0000000000000000000000000000000000000000000000000000000008152600401611d5290614d7e565b60405180910390fd5b600073ffffffffffffffffffffffffffffffffffffffff168473ffffffffffffffffffffffffffffffffffffffff161415611dcb576040517f08c379a0000000000000000000000000000000000000000000000000000000008152600401611dc290614c3e565b60405180910390fd5b6000611dd5611d0f565b9050611de58187878787876135bf565b60005b8451811015611fe2576000858281518110611e2c577f4e487b7100000000000000000000000000000000000000000000000000000000600052603260045260246000fd5b602002602001015190506000858381518110611e71577f4e487b7100000000000000000000000000000000000000000000000000000000600052603260045260246000fd5b60200260200101519050600080600084815260200190815260200160002060008b73ffffffffffffffffffffffffffffffffffffffff1673ffffffffffffffffffffffffffffffffffffffff16815260200190815260200160002054905081811015611f12576040517f08c379a0000000000000000000000000000000000000000000000000000000008152600401611f0990614c7e565b60405180910390fd5b81810360008085815260200190815260200160002060008c73ffffffffffffffffffffffffffffffffffffffff1673ffffffffffffffffffffffffffffffffffffffff168152602001908152602001600020819055508160008085815260200190815260200160002060008b73ffffffffffffffffffffffffffffffffffffffff1673ffffffffffffffffffffffffffffffffffffffff1681526020019081526020016000206000828254611fc79190614f72565b9250508190555050505080611fdb90615157565b9050611de8565b508473ffffffffffffffffffffffffffffffffffffffff168673ffffffffffffffffffffffffffffffffffffffff168273ffffffffffffffffffffffffffffffffffffffff167f4a39dc06d4c0dbc64b70af90fd698a233a518aa5d07e595d983b8c0526c8f7fb8787604051612059929190614a6f565b60405180910390a461206f8187878787876135c7565b61207d8187878787876137cd565b505050505050565b600073ffffffffffffffffffffffffffffffffffffffff168373ffffffffffffffffffffffffffffffffffffffff1614156120f5576040517f08c379a00000000000000000000000000000000000000000000000000000000081526004016120ec90614c5e565b60405180910390fd5b8051825114612139576040517f08c379a000000000000000000000000000000000000000000000000000000000815260040161213090614d7e565b60405180910390fd5b6000612143611d0f565b9050612163818560008686604051806020016040528060008152506135bf565b60005b83518110156122fc5760008482815181106121aa577f4e487b7100000000000000000000000000000000000000000000000000000000600052603260045260246000fd5b6020026020010151905060008483815181106121ef577f4e487b7100000000000000000000000000000000000000000000000000000000600052603260045260246000fd5b60200260200101519050600080600084815260200190815260200160002060008973ffffffffffffffffffffffffffffffffffffffff1673ffffffffffffffffffffffffffffffffffffffff16815260200190815260200160002054905081811015612290576040517f08c379a000000000000000000000000000000000000000000000000000000000815260040161228790614bbe565b60405180910390fd5b81810360008085815260200190815260200160002060008a73ffffffffffffffffffffffffffffffffffffffff1673ffffffffffffffffffffffffffffffffffffffff1681526020019081526020016000208190555050505080806122f490615157565b915050612166565b50600073ffffffffffffffffffffffffffffffffffffffff168473ffffffffffffffffffffffffffffffffffffffff168273ffffffffffffffffffffffffffffffffffffffff167f4a39dc06d4c0dbc64b70af90fd698a233a518aa5d07e595d983b8c0526c8f7fb8686604051612374929190614a6f565b60405180910390a461239a818560008686604051806020016040528060008152506135c7565b50505050565b600073ffffffffffffffffffffffffffffffffffffffff168473ffffffffffffffffffffffffffffffffffffffff161415612410576040517f08c379a000000000000000000000000000000000000000000000000000000000815260040161240790614d9e565b60405180910390fd5b8151835114612454576040517f08c379a000000000000000000000000000000000000000000000000000000000815260040161244b90614d7e565b60405180910390fd5b600061245e611d0f565b905061246f816000878787876135bf565b60005b8451811015612574578381815181106124b4577f4e487b7100000000000000000000000000000000000000000000000000000000600052603260045260246000fd5b60200260200101516000808784815181106124f8577f4e487b7100000000000000000000000000000000000000000000000000000000600052603260045260246000fd5b6020026020010151815260200190815260200160002060008873ffffffffffffffffffffffffffffffffffffffff1673ffffffffffffffffffffffffffffffffffffffff168152602001908152602001600020600082825461255a9190614f72565b92505081905550808061256c90615157565b915050612472565b508473ffffffffffffffffffffffffffffffffffffffff16600073ffffffffffffffffffffffffffffffffffffffff168273ffffffffffffffffffffffffffffffffffffffff167f4a39dc06d4c0dbc64b70af90fd698a233a518aa5d07e595d983b8c0526c8f7fb87876040516125ec929190614a6f565b60405180910390a4612603816000878787876135c7565b612612816000878787876137cd565b5050505050565b6000600360009054906101000a900473ffffffffffffffffffffffffffffffffffffffff16905081600360006101000a81548173ffffffffffffffffffffffffffffffffffffffff021916908373ffffffffffffffffffffffffffffffffffffffff1602179055508173ffffffffffffffffffffffffffffffffffffffff168173ffffffffffffffffffffffffffffffffffffffff167f8be0079c531659141344cd1fd0a4f28419497f9722a3daafe3b4186f6b6457e060405160405180910390a35050565b8173ffffffffffffffffffffffffffffffffffffffff168373ffffffffffffffffffffffffffffffffffffffff16141561274e576040517f08c379a000000000000000000000000000000000000000000000000000000000815260040161274590614d1e565b60405180910390fd5b80600160008573ffffffffffffffffffffffffffffffffffffffff1673ffffffffffffffffffffffffffffffffffffffff16815260200190815260200160002060008473ffffffffffffffffffffffffffffffffffffffff1673ffffffffffffffffffffffffffffffffffffffff16815260200190815260200160002060006101000a81548160ff0219169083151502179055508173ffffffffffffffffffffffffffffffffffffffff168373ffffffffffffffffffffffffffffffffffffffff167f17307eab39ab6107e8899845ad3d59bd9653f200f220920489ca2b5937696c318360405161283f9190614aa6565b60405180910390a3505050565b600073ffffffffffffffffffffffffffffffffffffffff168373ffffffffffffffffffffffffffffffffffffffff1614156128bc576040517f08c379a00000000000000000000000000000000000000000000000000000000081526004016128b390614c5e565b60405180910390fd5b60006128c6611d0f565b905060006128d3846134f9565b905060006128e0846134f9565b9050612900838760008585604051806020016040528060008152506135bf565b600080600087815260200190815260200160002060008873ffffffffffffffffffffffffffffffffffffffff1673ffffffffffffffffffffffffffffffffffffffff16815260200190815260200160002054905084811015612997576040517f08c379a000000000000000000000000000000000000000000000000000000000815260040161298e90614bbe565b60405180910390fd5b84810360008088815260200190815260200160002060008973ffffffffffffffffffffffffffffffffffffffff1673ffffffffffffffffffffffffffffffffffffffff16815260200190815260200160002081905550600073ffffffffffffffffffffffffffffffffffffffff168773ffffffffffffffffffffffffffffffffffffffff168573ffffffffffffffffffffffffffffffffffffffff167fc3d58168c5ae7397731d063d5bbf3d657854427343f4c083240f7aacaa2d0f628989604051612a64929190614df9565b60405180910390a4612a8a848860008686604051806020016040528060008152506135c7565b50505050505050565b83600281612aa233600161084c565b612aac9190614f72565b10612aec576040517f08c379a0000000000000000000000000000000000000000000000000000000008152600401612ae390614cfe565b60405180910390fd5b600a546001600d54612afe9190614f72565b1115612b3f576040517f08c379a0000000000000000000000000000000000000000000000000000000008152600401612b3690614dbe565b60405180910390fd5b600954600760029054906101000a900473ffffffffffffffffffffffffffffffffffffffff1673ffffffffffffffffffffffffffffffffffffffff166370a08231336040518263ffffffff1660e01b8152600401612b9d9190614910565b60206040518083038186803b158015612bb557600080fd5b505afa158015612bc9573d6000803e3d6000fd5b505050506040513d601f19601f82011682018060405250810190612bed9190614361565b1015612c2e576040517f08c379a0000000000000000000000000000000000000000000000000000000008152600401612c2590614bfe565b60405180910390fd5b600033604051602001612c4191906148f5565b60405160208183030381529060405280519060200120905060011515612c6986868685611cb7565b151514612cab576040517f08c379a0000000000000000000000000000000000000000000000000000000008152600401612ca290614b7e565b60405180910390fd5b85600d54612cb99190614f72565b600d81905550600186612ccd33600161084c565b612cd79190614f72565b148015612cee57506005612cec33600261084c565b145b15612d4c576001601060003373ffffffffffffffffffffffffffffffffffffffff1673ffffffffffffffffffffffffffffffffffffffff16815260200190815260200160002060006101000a81548160ff0219169083151502179055505b600760029054906101000a900473ffffffffffffffffffffffffffffffffffffffff1673ffffffffffffffffffffffffffffffffffffffff166323b872dd33306009546040518463ffffffff1660e01b8152600401612dad93929190614993565b602060405180830381600087803b158015612dc757600080fd5b505af1158015612ddb573d6000803e3d6000fd5b505050506040513d601f19601f82011682018060405250810190612dff9190614281565b50612e1c3360018860405180602001604052806000815250611a88565b505050505050565b83600681612e3333600261084c565b612e3d9190614f72565b10612e7d576040517f08c379a0000000000000000000000000000000000000000000000000000000008152600401612e7490614cbe565b60405180910390fd5b600b5481600e54612e8e9190614f72565b1115612ecf576040517f08c379a0000000000000000000000000000000000000000000000000000000008152600401612ec690614d5e565b60405180910390fd5b60001515601060003373ffffffffffffffffffffffffffffffffffffffff1673ffffffffffffffffffffffffffffffffffffffff16815260200190815260200160002060009054906101000a900460ff16151514612f62576040517f08c379a0000000000000000000000000000000000000000000000000000000008152600401612f5990614c1e565b60405180910390fd5b80600854612f709190614fc8565b600760029054906101000a900473ffffffffffffffffffffffffffffffffffffffff1673ffffffffffffffffffffffffffffffffffffffff166370a08231336040518263ffffffff1660e01b8152600401612fcb9190614910565b60206040518083038186803b158015612fe357600080fd5b505afa158015612ff7573d6000803e3d6000fd5b505050506040513d601f19601f8201168201806040525081019061301b9190614361565b101561305c576040517f08c379a000000000000000000000000000000000000000000000000000000000815260040161305390614bfe565b60405180910390fd5b60003360405160200161306f91906148f5565b6040516020818303038152906040528051906020012090506001151561309786868685611cb7565b1515146130d9576040517f08c379a00000000000000000000000000000000000000000000000000000000081526004016130d090614b7e565b60405180910390fd5b85600e546130e79190614f72565b600e819055506005866130fb33600261084c565b6131059190614f72565b14801561311c5750600161311a33600161084c565b145b1561317a576001601060003373ffffffffffffffffffffffffffffffffffffffff1673ffffffffffffffffffffffffffffffffffffffff16815260200190815260200160002060006101000a81548160ff0219169083151502179055505b600760029054906101000a900473ffffffffffffffffffffffffffffffffffffffff1673ffffffffffffffffffffffffffffffffffffffff166323b872dd3330896008546131c89190614fc8565b6040518463ffffffff1660e01b81526004016131e693929190614993565b602060405180830381600087803b15801561320057600080fd5b505af1158015613214573d6000803e3d6000fd5b505050506040513d601f19601f820116820180604052508101906132389190614281565b506132553360028860405180602001604052806000815250611a88565b505050505050565b600073ffffffffffffffffffffffffffffffffffffffff168473ffffffffffffffffffffffffffffffffffffffff1614156132cd576040517f08c379a00000000000000000000000000000000000000000000000000000000081526004016132c490614c3e565b60405180910390fd5b60006132d7611d0f565b905060006132e4856134f9565b905060006132f1856134f9565b90506133018389898585896135bf565b600080600088815260200190815260200160002060008a73ffffffffffffffffffffffffffffffffffffffff1673ffffffffffffffffffffffffffffffffffffffff16815260200190815260200160002054905085811015613398576040517f08c379a000000000000000000000000000000000000000000000000000000000815260040161338f90614c7e565b60405180910390fd5b85810360008089815260200190815260200160002060008b73ffffffffffffffffffffffffffffffffffffffff1673ffffffffffffffffffffffffffffffffffffffff168152602001908152602001600020819055508560008089815260200190815260200160002060008a73ffffffffffffffffffffffffffffffffffffffff1673ffffffffffffffffffffffffffffffffffffffff168152602001908152602001600020600082825461344d9190614f72565b925050819055508773ffffffffffffffffffffffffffffffffffffffff168973ffffffffffffffffffffffffffffffffffffffff168573ffffffffffffffffffffffffffffffffffffffff167fc3d58168c5ae7397731d063d5bbf3d657854427343f4c083240f7aacaa2d0f628a8a6040516134ca929190614df9565b60405180910390a46134e0848a8a86868a6135c7565b6134ee848a8a8a8a8a6135cf565b505050505050505050565b60606000600167ffffffffffffffff81111561353e577f4e487b7100000000000000000000000000000000000000000000000000000000600052604160045260246000fd5b60405190808252806020026020018201604052801561356c5781602001602082028036833780820191505090505b50905082816000815181106135aa577f4e487b7100000000000000000000000000000000000000000000000000000000600052603260045260246000fd5b60200260200101818152505080915050919050565b505050505050565b505050505050565b6135ee8473ffffffffffffffffffffffffffffffffffffffff166139b4565b156137ae578373ffffffffffffffffffffffffffffffffffffffff1663f23a6e6187878686866040518663ffffffff1660e01b81526004016136349594939291906149ca565b602060405180830381600087803b15801561364e57600080fd5b505af192505050801561367f57506040513d601f19601f8201168201806040525081019061367c91906142d3565b60015b6137255761368b615251565b806308c379a014156136e857506136a061591f565b806136ab57506136ea565b806040517f08c379a00000000000000000000000000000000000000000000000000000000081526004016136df9190614adc565b60405180910390fd5b505b6040517f08c379a000000000000000000000000000000000000000000000000000000000815260040161371c90614afe565b60405180910390fd5b63f23a6e6160e01b7bffffffffffffffffffffffffffffffffffffffffffffffffffffffff1916817bffffffffffffffffffffffffffffffffffffffffffffffffffffffff1916146137ac576040517f08c379a00000000000000000000000000000000000000000000000000000000081526004016137a390614b3e565b60405180910390fd5b505b505050505050565b6000826137c385846139d7565b1490509392505050565b6137ec8473ffffffffffffffffffffffffffffffffffffffff166139b4565b156139ac578373ffffffffffffffffffffffffffffffffffffffff1663bc197c8187878686866040518663ffffffff1660e01b815260040161383295949392919061492b565b602060405180830381600087803b15801561384c57600080fd5b505af192505050801561387d57506040513d601f19601f8201168201806040525081019061387a91906142d3565b60015b61392357613889615251565b806308c379a014156138e6575061389e61591f565b806138a957506138e8565b806040517f08c379a00000000000000000000000000000000000000000000000000000000081526004016138dd9190614adc565b60405180910390fd5b505b6040517f08c379a000000000000000000000000000000000000000000000000000000000815260040161391a90614afe565b60405180910390fd5b63bc197c8160e01b7bffffffffffffffffffffffffffffffffffffffffffffffffffffffff1916817bffffffffffffffffffffffffffffffffffffffffffffffffffffffff1916146139aa576040517f08c379a00000000000000000000000000000000000000000000000000000000081526004016139a190614b3e565b60405180910390fd5b505b505050505050565b6000808273ffffffffffffffffffffffffffffffffffffffff163b119050919050565b60008082905060005b8451811015613a4857613a3382868381518110613a26577f4e487b7100000000000000000000000000000000000000000000000000000000600052603260045260246000fd5b6020026020010151613a53565b91508080613a4090615157565b9150506139e0565b508091505092915050565b6000818310613a6b57613a668284613a7e565b613a76565b613a758383613a7e565b5b905092915050565b600082600052816020526040600020905092915050565b828054613aa1906150f4565b90600052602060002090601f016020900481019282613ac35760008555613b0a565b82601f10613adc57805160ff1916838001178555613b0a565b82800160010185558215613b0a579182015b82811115613b09578251825591602001919060010190613aee565b5b509050613b179190613b1b565b5090565b5b80821115613b34576000816000905550600101613b1c565b5090565b6000613b4b613b4684614e47565b614e22565b90508083825260208201905082856020860282011115613b6a57600080fd5b60005b85811015613b9a5781613b808882613c8c565b845260208401935060208301925050600181019050613b6d565b5050509392505050565b6000613bb7613bb284614e73565b614e22565b90508083825260208201905082856020860282011115613bd657600080fd5b60005b85811015613c065781613bec8882613dfc565b845260208401935060208301925050600181019050613bd9565b5050509392505050565b6000613c23613c1e84614e9f565b614e22565b905082815260208101848484011115613c3b57600080fd5b613c468482856150b2565b509392505050565b6000613c61613c5c84614ed0565b614e22565b905082815260208101848484011115613c7957600080fd5b613c848482856150b2565b509392505050565b600081359050613c9b816159b5565b92915050565b600082601f830112613cb257600080fd5b8135613cc2848260208601613b38565b91505092915050565b60008083601f840112613cdd57600080fd5b8235905067ffffffffffffffff811115613cf657600080fd5b602083019150836020820283011115613d0e57600080fd5b9250929050565b600082601f830112613d2657600080fd5b8135613d36848260208601613ba4565b91505092915050565b600081359050613d4e816159cc565b92915050565b600081519050613d63816159cc565b92915050565b600081359050613d78816159e3565b92915050565b600081519050613d8d816159e3565b92915050565b600082601f830112613da457600080fd5b8135613db4848260208601613c10565b91505092915050565b600081359050613dcc816159fa565b92915050565b600082601f830112613de357600080fd5b8135613df3848260208601613c4e565b91505092915050565b600081359050613e0b81615a11565b92915050565b600081519050613e2081615a11565b92915050565b600060208284031215613e3857600080fd5b6000613e4684828501613c8c565b91505092915050565b60008060408385031215613e6257600080fd5b6000613e7085828601613c8c565b9250506020613e8185828601613c8c565b9150509250929050565b600080600080600060a08688031215613ea357600080fd5b6000613eb188828901613c8c565b9550506020613ec288828901613c8c565b945050604086013567ffffffffffffffff811115613edf57600080fd5b613eeb88828901613d15565b935050606086013567ffffffffffffffff811115613f0857600080fd5b613f1488828901613d15565b925050608086013567ffffffffffffffff811115613f3157600080fd5b613f3d88828901613d93565b9150509295509295909350565b600080600080600060a08688031215613f6257600080fd5b6000613f7088828901613c8c565b9550506020613f8188828901613c8c565b9450506040613f9288828901613dfc565b9350506060613fa388828901613dfc565b925050608086013567ffffffffffffffff811115613fc057600080fd5b613fcc88828901613d93565b9150509295509295909350565b600080600060408486031215613fee57600080fd5b6000613ffc86828701613c8c565b935050602084013567ffffffffffffffff81111561401957600080fd5b61402586828701613ccb565b92509250509250925092565b600080600080600060a0868803121561404957600080fd5b600061405788828901613c8c565b955050602086013567ffffffffffffffff81111561407457600080fd5b61408088828901613d15565b945050604086013567ffffffffffffffff81111561409d57600080fd5b6140a988828901613d15565b935050606086013567ffffffffffffffff8111156140c657600080fd5b6140d288828901613d15565b925050608086013567ffffffffffffffff8111156140ef57600080fd5b6140fb88828901613d15565b9150509295509295909350565b6000806040838503121561411b57600080fd5b600061412985828601613c8c565b925050602061413a85828601613d3f565b9150509250929050565b6000806040838503121561415757600080fd5b600061416585828601613c8c565b925050602061417685828601613dfc565b9150509250929050565b6000806040838503121561419357600080fd5b600083013567ffffffffffffffff8111156141ad57600080fd5b6141b985828601613ca1565b925050602083013567ffffffffffffffff8111156141d657600080fd5b6141e285828601613d15565b9150509250929050565b600080604083850312156141ff57600080fd5b600083013567ffffffffffffffff81111561421957600080fd5b61422585828601613d15565b925050602083013567ffffffffffffffff81111561424257600080fd5b61424e85828601613d15565b9150509250929050565b60006020828403121561426a57600080fd5b600061427884828501613d3f565b91505092915050565b60006020828403121561429357600080fd5b60006142a184828501613d54565b91505092915050565b6000602082840312156142bc57600080fd5b60006142ca84828501613d69565b91505092915050565b6000602082840312156142e557600080fd5b60006142f384828501613d7e565b91505092915050565b6000806040838503121561430f57600080fd5b600061431d85828601613dbd565b925050602061432e85828601613c8c565b9150509250929050565b60006020828403121561434a57600080fd5b600061435884828501613dfc565b91505092915050565b60006020828403121561437357600080fd5b600061438184828501613e11565b91505092915050565b6000806040838503121561439d57600080fd5b60006143ab85828601613dfc565b925050602083013567ffffffffffffffff8111156143c857600080fd5b6143d485828601613dd2565b9150509250929050565b600080604083850312156143f157600080fd5b60006143ff85828601613dfc565b925050602061441085828601613dfc565b9150509250929050565b6000806000806060858703121561443057600080fd5b600061443e87828801613dfc565b945050602061444f87828801613dfc565b935050604085013567ffffffffffffffff81111561446c57600080fd5b61447887828801613ccb565b925092505092959194509250565b600061449283836148d7565b60208301905092915050565b6144a781615022565b82525050565b6144be6144b982615022565b6151a0565b82525050565b60006144cf82614f11565b6144d98185614f3f565b93506144e483614f01565b8060005b838110156145155781516144fc8882614486565b975061450783614f32565b9250506001810190506144e8565b5085935050505092915050565b61452b81615034565b82525050565b61453a81615040565b82525050565b600061454b82614f1c565b6145558185614f50565b93506145658185602086016150c1565b61456e81615273565b840191505092915050565b600061458482614f27565b61458e8185614f61565b935061459e8185602086016150c1565b6145a781615273565b840191505092915050565b60006145bf603483614f61565b91506145ca8261529e565b604082019050919050565b60006145e2602f83614f61565b91506145ed826152ed565b604082019050919050565b6000614605602883614f61565b91506146108261533c565b604082019050919050565b6000614628601883614f61565b91506146338261538b565b602082019050919050565b600061464b602b83614f61565b9150614656826153b4565b604082019050919050565b600061466e602683614f61565b915061467982615403565b604082019050919050565b6000614691602483614f61565b915061469c82615452565b604082019050919050565b60006146b4602a83614f61565b91506146bf826154a1565b604082019050919050565b60006146d7601483614f61565b91506146e2826154f0565b602082019050919050565b60006146fa602683614f61565b915061470582615519565b604082019050919050565b600061471d602583614f61565b915061472882615568565b604082019050919050565b6000614740602383614f61565b915061474b826155b7565b604082019050919050565b6000614763602a83614f61565b915061476e82615606565b604082019050919050565b6000614786602083614f61565b915061479182615655565b602082019050919050565b60006147a9602983614f61565b91506147b48261567e565b604082019050919050565b60006147cc601983614f61565b91506147d7826156cd565b602082019050919050565b60006147ef602983614f61565b91506147fa826156f6565b604082019050919050565b6000614812602983614f61565b915061481d82615745565b604082019050919050565b6000614835602983614f61565b915061484082615794565b604082019050919050565b6000614858602a83614f61565b9150614863826157e3565b604082019050919050565b600061487b602883614f61565b915061488682615832565b604082019050919050565b600061489e602183614f61565b91506148a982615881565b604082019050919050565b60006148c1602a83614f61565b91506148cc826158d0565b604082019050919050565b6148e0816150a8565b82525050565b6148ef816150a8565b82525050565b600061490182846144ad565b60148201915081905092915050565b6000602082019050614925600083018461449e565b92915050565b600060a082019050614940600083018861449e565b61494d602083018761449e565b818103604083015261495f81866144c4565b9050818103606083015261497381856144c4565b905081810360808301526149878184614540565b90509695505050505050565b60006060820190506149a8600083018661449e565b6149b5602083018561449e565b6149c260408301846148e6565b949350505050565b600060a0820190506149df600083018861449e565b6149ec602083018761449e565b6149f960408301866148e6565b614a0660608301856148e6565b8181036080830152614a188184614540565b90509695505050505050565b6000604082019050614a39600083018561449e565b614a4660208301846148e6565b9392505050565b60006020820190508181036000830152614a6781846144c4565b905092915050565b60006040820190508181036000830152614a8981856144c4565b90508181036020830152614a9d81846144c4565b90509392505050565b6000602082019050614abb6000830184614522565b92915050565b6000602082019050614ad66000830184614531565b92915050565b60006020820190508181036000830152614af68184614579565b905092915050565b60006020820190508181036000830152614b17816145b2565b9050919050565b60006020820190508181036000830152614b37816145d5565b9050919050565b60006020820190508181036000830152614b57816145f8565b9050919050565b60006020820190508181036000830152614b778161461b565b9050919050565b60006020820190508181036000830152614b978161463e565b9050919050565b60006020820190508181036000830152614bb781614661565b9050919050565b60006020820190508181036000830152614bd781614684565b9050919050565b60006020820190508181036000830152614bf7816146a7565b9050919050565b60006020820190508181036000830152614c17816146ca565b9050919050565b60006020820190508181036000830152614c37816146ed565b9050919050565b60006020820190508181036000830152614c5781614710565b9050919050565b60006020820190508181036000830152614c7781614733565b9050919050565b60006020820190508181036000830152614c9781614756565b9050919050565b60006020820190508181036000830152614cb781614779565b9050919050565b60006020820190508181036000830152614cd78161479c565b9050919050565b60006020820190508181036000830152614cf7816147bf565b9050919050565b60006020820190508181036000830152614d17816147e2565b9050919050565b60006020820190508181036000830152614d3781614805565b9050919050565b60006020820190508181036000830152614d5781614828565b9050919050565b60006020820190508181036000830152614d778161484b565b9050919050565b60006020820190508181036000830152614d978161486e565b9050919050565b60006020820190508181036000830152614db781614891565b9050919050565b60006020820190508181036000830152614dd7816148b4565b9050919050565b6000602082019050614df360008301846148e6565b92915050565b6000604082019050614e0e60008301856148e6565b614e1b60208301846148e6565b9392505050565b6000614e2c614e3d565b9050614e388282615126565b919050565b6000604051905090565b600067ffffffffffffffff821115614e6257614e61615222565b5b602082029050602081019050919050565b600067ffffffffffffffff821115614e8e57614e8d615222565b5b602082029050602081019050919050565b600067ffffffffffffffff821115614eba57614eb9615222565b5b614ec382615273565b9050602081019050919050565b600067ffffffffffffffff821115614eeb57614eea615222565b5b614ef482615273565b9050602081019050919050565b6000819050602082019050919050565b600081519050919050565b600081519050919050565b600081519050919050565b6000602082019050919050565b600082825260208201905092915050565b600082825260208201905092915050565b600082825260208201905092915050565b6000614f7d826150a8565b9150614f88836150a8565b9250827fffffffffffffffffffffffffffffffffffffffffffffffffffffffffffffffff03821115614fbd57614fbc6151c4565b5b828201905092915050565b6000614fd3826150a8565b9150614fde836150a8565b9250817fffffffffffffffffffffffffffffffffffffffffffffffffffffffffffffffff0483118215151615615017576150166151c4565b5b828202905092915050565b600061502d82615088565b9050919050565b60008115159050919050565b6000819050919050565b60007fffffffff0000000000000000000000000000000000000000000000000000000082169050919050565b600061508182615022565b9050919050565b600073ffffffffffffffffffffffffffffffffffffffff82169050919050565b6000819050919050565b82818337600083830152505050565b60005b838110156150df5780820151818401526020810190506150c4565b838111156150ee576000848401525b50505050565b6000600282049050600182168061510c57607f821691505b602082108114156151205761511f6151f3565b5b50919050565b61512f82615273565b810181811067ffffffffffffffff8211171561514e5761514d615222565b5b80604052505050565b6000615162826150a8565b91507fffffffffffffffffffffffffffffffffffffffffffffffffffffffffffffffff821415615195576151946151c4565b5b600182019050919050565b60006151ab826151b2565b9050919050565b60006151bd82615284565b9050919050565b7f4e487b7100000000000000000000000000000000000000000000000000000000600052601160045260246000fd5b7f4e487b7100000000000000000000000000000000000000000000000000000000600052602260045260246000fd5b7f4e487b7100000000000000000000000000000000000000000000000000000000600052604160045260246000fd5b600060033d11156152705760046000803e61526d600051615291565b90505b90565b6000601f19601f8301169050919050565b60008160601b9050919050565b60008160e01c9050919050565b7f455243313135353a207472616e7366657220746f206e6f6e204552433131353560008201527f526563656976657220696d706c656d656e746572000000000000000000000000602082015250565b7f455243313135353a2063616c6c6572206973206e6f7420746f6b656e206f776e60008201527f6572206e6f7220617070726f7665640000000000000000000000000000000000602082015250565b7f455243313135353a204552433131353552656365697665722072656a6563746560008201527f6420746f6b656e73000000000000000000000000000000000000000000000000602082015250565b7f476f6c644c6973742073616c65206e6f74206163746976650000000000000000600082015250565b7f41646472657373206e6f7420656c696769626c65202d20496e76616c6964206d60008201527f65726b6c652070726f6f66000000000000000000000000000000000000000000602082015250565b7f4f776e61626c653a206e6577206f776e657220697320746865207a65726f206160008201527f6464726573730000000000000000000000000000000000000000000000000000602082015250565b7f455243313135353a206275726e20616d6f756e7420657863656564732062616c60008201527f616e636500000000000000000000000000000000000000000000000000000000602082015250565b7f455243313135353a2061646472657373207a65726f206973206e6f742061207660008201527f616c6964206f776e657200000000000000000000000000000000000000000000602082015250565b7f496e73756666696369656e742062616c616e6365000000000000000000000000600082015250565b7f4d617820312046756c6c4e6f64652c2035204c6974654e6f646573207065722060008201527f77616c6c65740000000000000000000000000000000000000000000000000000602082015250565b7f455243313135353a207472616e7366657220746f20746865207a65726f20616460008201527f6472657373000000000000000000000000000000000000000000000000000000602082015250565b7f455243313135353a206275726e2066726f6d20746865207a65726f206164647260008201527f6573730000000000000000000000000000000000000000000000000000000000602082015250565b7f455243313135353a20696e73756666696369656e742062616c616e636520666f60008201527f72207472616e7366657200000000000000000000000000000000000000000000602082015250565b7f4f776e61626c653a2063616c6c6572206973206e6f7420746865206f776e6572600082015250565b7f45786365656473206d61782035204c697465204e6f6465206c696d697420706560008201527f7220616464726573730000000000000000000000000000000000000000000000602082015250565b7f57686974654c6973742073616c65206e6f742061637469766500000000000000600082015250565b7f45786365656473206d617820312046756c6c204e6f6465206c696d697420706560008201527f7220616464726573730000000000000000000000000000000000000000000000602082015250565b7f455243313135353a2073657474696e6720617070726f76616c2073746174757360008201527f20666f722073656c660000000000000000000000000000000000000000000000602082015250565b7f455243313135353a206163636f756e747320616e6420696473206c656e67746860008201527f206d69736d617463680000000000000000000000000000000000000000000000602082015250565b7f507572636861736520776f756c6420657863656564206d6178204c697465204e60008201527f6f646520737570706c7900000000000000000000000000000000000000000000602082015250565b7f455243313135353a2069647320616e6420616d6f756e7473206c656e6774682060008201527f6d69736d61746368000000000000000000000000000000000000000000000000602082015250565b7f455243313135353a206d696e7420746f20746865207a65726f2061646472657360008201527f7300000000000000000000000000000000000000000000000000000000000000602082015250565b7f507572636861736520776f756c6420657863656564206d61782046756c6c204e60008201527f6f646520737570706c7900000000000000000000000000000000000000000000602082015250565b600060443d101561592f576159b2565b615937614e3d565b60043d036004823e80513d602482011167ffffffffffffffff8211171561595f5750506159b2565b808201805167ffffffffffffffff81111561597d57505050506159b2565b80602083010160043d03850181111561599a5750505050506159b2565b6159a982602001850186615126565b82955050505050505b90565b6159be81615022565b81146159c957600080fd5b50565b6159d581615034565b81146159e057600080fd5b50565b6159ec8161504a565b81146159f757600080fd5b50565b615a0381615076565b8114615a0e57600080fd5b50565b615a1a816150a8565b8114615a2557600080fd5b5056fea264697066735822122024ab88ceefc21c3d562f2c762303bd020deb1daa07618429de75cfaa9cb0720f64736f6c63430008040033",
  "linkReferences": {},
  "deployedLinkReferences": {}
}